{
	"contracts/wtom.sol": {
		"Token": {
			"abi": [
				{
					"inputs": [],
					"stateMutability": "nonpayable",
					"type": "constructor"
				},
				{
					"anonymous": false,
					"inputs": [
						{
							"indexed": true,
							"internalType": "address",
							"name": "owner",
							"type": "address"
						},
						{
							"indexed": true,
							"internalType": "address",
							"name": "spender",
							"type": "address"
						},
						{
							"indexed": false,
							"internalType": "uint256",
							"name": "value",
							"type": "uint256"
						}
					],
					"name": "Approval",
					"type": "event"
				},
				{
					"anonymous": false,
					"inputs": [
						{
							"indexed": true,
							"internalType": "address",
							"name": "from",
							"type": "address"
						},
						{
							"indexed": true,
							"internalType": "address",
							"name": "to",
							"type": "address"
						},
						{
							"indexed": false,
							"internalType": "uint256",
							"name": "value",
							"type": "uint256"
						}
					],
					"name": "Transfer",
					"type": "event"
				},
				{
					"inputs": [
						{
							"internalType": "address",
							"name": "",
							"type": "address"
						},
						{
							"internalType": "address",
							"name": "",
							"type": "address"
						}
					],
					"name": "allowance",
					"outputs": [
						{
							"internalType": "uint256",
							"name": "",
							"type": "uint256"
						}
					],
					"stateMutability": "view",
					"type": "function"
				},
				{
					"inputs": [
						{
							"internalType": "address",
							"name": "spender",
							"type": "address"
						},
						{
							"internalType": "uint256",
							"name": "value",
							"type": "uint256"
						}
					],
					"name": "approve",
					"outputs": [
						{
							"internalType": "bool",
							"name": "",
							"type": "bool"
						}
					],
					"stateMutability": "nonpayable",
					"type": "function"
				},
				{
					"inputs": [],
					"name": "balance",
					"outputs": [
						{
							"internalType": "int256",
							"name": "",
							"type": "int256"
						}
					],
					"stateMutability": "view",
					"type": "function"
				},
				{
					"inputs": [
						{
							"internalType": "address",
							"name": "owner",
							"type": "address"
						}
					],
					"name": "balanceOf",
					"outputs": [
						{
							"internalType": "uint256",
							"name": "",
							"type": "uint256"
						}
					],
					"stateMutability": "view",
					"type": "function"
				},
				{
					"inputs": [
						{
							"internalType": "address",
							"name": "",
							"type": "address"
						}
					],
					"name": "balances",
					"outputs": [
						{
							"internalType": "uint256",
							"name": "",
							"type": "uint256"
						}
					],
					"stateMutability": "view",
					"type": "function"
				},
				{
					"inputs": [],
					"name": "decimals",
					"outputs": [
						{
							"internalType": "uint256",
							"name": "",
							"type": "uint256"
						}
					],
					"stateMutability": "view",
					"type": "function"
				},
				{
					"inputs": [
						{
							"internalType": "int256",
							"name": "amt",
							"type": "int256"
						}
					],
					"name": "depositBalance",
					"outputs": [],
					"stateMutability": "nonpayable",
					"type": "function"
				},
				{
					"inputs": [],
					"name": "getBalance",
					"outputs": [
						{
							"internalType": "int256",
							"name": "",
							"type": "int256"
						}
					],
					"stateMutability": "view",
					"type": "function"
				},
				{
					"inputs": [],
					"name": "name",
					"outputs": [
						{
							"internalType": "string",
							"name": "",
							"type": "string"
						}
					],
					"stateMutability": "view",
					"type": "function"
				},
				{
					"inputs": [],
					"name": "symbol",
					"outputs": [
						{
							"internalType": "string",
							"name": "",
							"type": "string"
						}
					],
					"stateMutability": "view",
					"type": "function"
				},
				{
					"inputs": [],
					"name": "totalSupply",
					"outputs": [
						{
							"internalType": "uint256",
							"name": "",
							"type": "uint256"
						}
					],
					"stateMutability": "view",
					"type": "function"
				},
				{
					"inputs": [
						{
							"internalType": "address",
							"name": "to",
							"type": "address"
						},
						{
							"internalType": "uint256",
							"name": "value",
							"type": "uint256"
						}
					],
					"name": "transfer",
					"outputs": [
						{
							"internalType": "bool",
							"name": "",
							"type": "bool"
						}
					],
					"stateMutability": "nonpayable",
					"type": "function"
				},
				{
					"inputs": [
						{
							"internalType": "address",
							"name": "from",
							"type": "address"
						},
						{
							"internalType": "address",
							"name": "to",
							"type": "address"
						},
						{
							"internalType": "uint256",
							"name": "value",
							"type": "uint256"
						}
					],
					"name": "transferFrom",
					"outputs": [
						{
							"internalType": "bool",
							"name": "",
							"type": "bool"
						}
					],
					"stateMutability": "nonpayable",
					"type": "function"
				},
				{
					"inputs": [
						{
							"internalType": "int256",
							"name": "amt",
							"type": "int256"
						}
					],
					"name": "withdrawBalance",
					"outputs": [],
					"stateMutability": "nonpayable",
					"type": "function"
				}
			],
			"devdoc": {
				"kind": "dev",
				"methods": {},
				"version": 1
			},
			"evm": {
				"assembly": "    /* \"contracts/wtom.sol\":69:1900  contract Token {\r... */\n  mstore(0x40, 0x80)\n    /* \"contracts/wtom.sol\":231:256  10000000000000 * 10 ** 18 */\n  0x7e37be2022c0914b2680000000\n    /* \"contracts/wtom.sol\":205:256  uint public totalSupply = 10000000000000 * 10 ** 18 */\n  0x02\n  sstore\n    /* \"contracts/wtom.sol\":263:297  string public name = \"KAME TOKENs\" */\n  mload(0x40)\n  dup1\n  0x40\n  add\n  0x40\n  mstore\n  dup1\n  0x0b\n  dup2\n  mstore\n  0x20\n  add\n  0x4b414d4520544f4b454e73000000000000000000000000000000000000000000\n  dup2\n  mstore\n  pop\n  0x03\n  swap1\n  dup1\n  mload\n  swap1\n  0x20\n  add\n  swap1\n  tag_1\n  swap3\n  swap2\n  swap1\n  tag_2\n  jump\t// in\ntag_1:\n  pop\n    /* \"contracts/wtom.sol\":304:332  string public symbol = \"KAT\" */\n  mload(0x40)\n  dup1\n  0x40\n  add\n  0x40\n  mstore\n  dup1\n  0x03\n  dup2\n  mstore\n  0x20\n  add\n  0x4b41540000000000000000000000000000000000000000000000000000000000\n  dup2\n  mstore\n  pop\n  0x04\n  swap1\n  dup1\n  mload\n  swap1\n  0x20\n  add\n  swap1\n  tag_3\n  swap3\n  swap2\n  swap1\n  tag_2\n  jump\t// in\ntag_3:\n  pop\n    /* \"contracts/wtom.sol\":362:364  18 */\n  0x12\n    /* \"contracts/wtom.sol\":339:364  uint public decimals = 18 */\n  0x05\n  sstore\n    /* \"contracts/wtom.sol\":560:647  constructor() {\r... */\n  callvalue\n  dup1\n  iszero\n  tag_4\n  jumpi\n  0x00\n  dup1\n  revert\ntag_4:\n  pop\n    /* \"contracts/wtom.sol\":608:619  totalSupply */\n  sload(0x02)\n    /* \"contracts/wtom.sol\":585:593  balances */\n  0x00\n    /* \"contracts/wtom.sol\":585:605  balances[msg.sender] */\n  dup1\n    /* \"contracts/wtom.sol\":594:604  msg.sender */\n  caller\n    /* \"contracts/wtom.sol\":585:605  balances[msg.sender] */\n  0xffffffffffffffffffffffffffffffffffffffff\n  and\n  0xffffffffffffffffffffffffffffffffffffffff\n  and\n  dup2\n  mstore\n  0x20\n  add\n  swap1\n  dup2\n  mstore\n  0x20\n  add\n  0x00\n  keccak256\n    /* \"contracts/wtom.sol\":585:619  balances[msg.sender] = totalSupply */\n  dup2\n  swap1\n  sstore\n  pop\n    /* \"contracts/wtom.sol\":638:639  0 */\n  0x00\n    /* \"contracts/wtom.sol\":630:637  balance */\n  0x06\n    /* \"contracts/wtom.sol\":630:639  balance=0 */\n  dup2\n  swap1\n  sstore\n  pop\n    /* \"contracts/wtom.sol\":69:1900  contract Token {\r... */\n  jump(tag_7)\ntag_2:\n  dup3\n  dup1\n  sload\n  tag_8\n  swap1\n  tag_9\n  jump\t// in\ntag_8:\n  swap1\n  0x00\n  mstore\n  keccak256(0x00, 0x20)\n  swap1\n  0x1f\n  add\n  0x20\n  swap1\n  div\n  dup2\n  add\n  swap3\n  dup3\n  tag_11\n  jumpi\n  0x00\n  dup6\n  sstore\n  jump(tag_10)\ntag_11:\n  dup3\n  0x1f\n  lt\n  tag_12\n  jumpi\n  dup1\n  mload\n  not(0xff)\n  and\n  dup4\n  dup1\n  add\n  or\n  dup6\n  sstore\n  jump(tag_10)\ntag_12:\n  dup3\n  dup1\n  add\n  0x01\n  add\n  dup6\n  sstore\n  dup3\n  iszero\n  tag_10\n  jumpi\n  swap2\n  dup3\n  add\ntag_13:\n  dup3\n  dup2\n  gt\n  iszero\n  tag_14\n  jumpi\n  dup3\n  mload\n  dup3\n  sstore\n  swap2\n  0x20\n  add\n  swap2\n  swap1\n  0x01\n  add\n  swap1\n  jump(tag_13)\ntag_14:\ntag_10:\n  pop\n  swap1\n  pop\n  tag_15\n  swap2\n  swap1\n  tag_16\n  jump\t// in\ntag_15:\n  pop\n  swap1\n  jump\t// out\ntag_16:\ntag_17:\n  dup1\n  dup3\n  gt\n  iszero\n  tag_18\n  jumpi\n  0x00\n  dup2\n  0x00\n  swap1\n  sstore\n  pop\n  0x01\n  add\n  jump(tag_17)\ntag_18:\n  pop\n  swap1\n  jump\t// out\n    /* \"#utility.yul\":7:327   */\ntag_9:\n    /* \"#utility.yul\":51:57   */\n  0x00\n    /* \"#utility.yul\":88:89   */\n  0x02\n    /* \"#utility.yul\":82:86   */\n  dup3\n    /* \"#utility.yul\":78:90   */\n  div\n    /* \"#utility.yul\":68:90   */\n  swap1\n  pop\n    /* \"#utility.yul\":135:136   */\n  0x01\n    /* \"#utility.yul\":129:133   */\n  dup3\n    /* \"#utility.yul\":125:137   */\n  and\n    /* \"#utility.yul\":156:174   */\n  dup1\n    /* \"#utility.yul\":146:227   */\n  tag_21\n  jumpi\n    /* \"#utility.yul\":212:216   */\n  0x7f\n    /* \"#utility.yul\":204:210   */\n  dup3\n    /* \"#utility.yul\":200:217   */\n  and\n    /* \"#utility.yul\":190:217   */\n  swap2\n  pop\n    /* \"#utility.yul\":146:227   */\ntag_21:\n    /* \"#utility.yul\":274:276   */\n  0x20\n    /* \"#utility.yul\":266:272   */\n  dup3\n    /* \"#utility.yul\":263:277   */\n  lt\n    /* \"#utility.yul\":243:261   */\n  dup2\n    /* \"#utility.yul\":240:278   */\n  eq\n    /* \"#utility.yul\":237:321   */\n  iszero\n  tag_22\n  jumpi\n    /* \"#utility.yul\":293:311   */\n  tag_23\n  tag_24\n  jump\t// in\ntag_23:\n    /* \"#utility.yul\":237:321   */\ntag_22:\n    /* \"#utility.yul\":58:327   */\n  pop\n    /* \"#utility.yul\":7:327   */\n  swap2\n  swap1\n  pop\n  jump\t// out\n    /* \"#utility.yul\":333:513   */\ntag_24:\n    /* \"#utility.yul\":381:458   */\n  0x4e487b7100000000000000000000000000000000000000000000000000000000\n    /* \"#utility.yul\":378:379   */\n  0x00\n    /* \"#utility.yul\":371:459   */\n  mstore\n    /* \"#utility.yul\":478:482   */\n  0x22\n    /* \"#utility.yul\":475:476   */\n  0x04\n    /* \"#utility.yul\":468:483   */\n  mstore\n    /* \"#utility.yul\":502:506   */\n  0x24\n    /* \"#utility.yul\":499:500   */\n  0x00\n    /* \"#utility.yul\":492:507   */\n  revert\n    /* \"contracts/wtom.sol\":69:1900  contract Token {\r... */\ntag_7:\n  dataSize(sub_0)\n  dup1\n  dataOffset(sub_0)\n  0x00\n  codecopy\n  0x00\n  return\nstop\n\nsub_0: assembly {\n        /* \"contracts/wtom.sol\":69:1900  contract Token {\r... */\n      mstore(0x40, 0x80)\n      callvalue\n      dup1\n      iszero\n      tag_1\n      jumpi\n      0x00\n      dup1\n      revert\n    tag_1:\n      pop\n      jumpi(tag_2, lt(calldatasize, 0x04))\n      shr(0xe0, calldataload(0x00))\n      dup1\n      0x70a08231\n      gt\n      tag_17\n      jumpi\n      dup1\n      0xa9059cbb\n      gt\n      tag_18\n      jumpi\n      dup1\n      0xa9059cbb\n      eq\n      tag_13\n      jumpi\n      dup1\n      0xb69ef8a8\n      eq\n      tag_14\n      jumpi\n      dup1\n      0xdd62ed3e\n      eq\n      tag_15\n      jumpi\n      dup1\n      0xe51ed0a0\n      eq\n      tag_16\n      jumpi\n      jump(tag_2)\n    tag_18:\n      dup1\n      0x70a08231\n      eq\n      tag_10\n      jumpi\n      dup1\n      0x7c52caa3\n      eq\n      tag_11\n      jumpi\n      dup1\n      0x95d89b41\n      eq\n      tag_12\n      jumpi\n      jump(tag_2)\n    tag_17:\n      dup1\n      0x18160ddd\n      gt\n      tag_19\n      jumpi\n      dup1\n      0x18160ddd\n      eq\n      tag_6\n      jumpi\n      dup1\n      0x23b872dd\n      eq\n      tag_7\n      jumpi\n      dup1\n      0x27e235e3\n      eq\n      tag_8\n      jumpi\n      dup1\n      0x313ce567\n      eq\n      tag_9\n      jumpi\n      jump(tag_2)\n    tag_19:\n      dup1\n      0x06fdde03\n      eq\n      tag_3\n      jumpi\n      dup1\n      0x095ea7b3\n      eq\n      tag_4\n      jumpi\n      dup1\n      0x12065fe0\n      eq\n      tag_5\n      jumpi\n    tag_2:\n      0x00\n      dup1\n      revert\n        /* \"contracts/wtom.sol\":263:297  string public name = \"KAME TOKENs\" */\n    tag_3:\n      tag_20\n      tag_21\n      jump\t// in\n    tag_20:\n      mload(0x40)\n      tag_22\n      swap2\n      swap1\n      tag_23\n      jump\t// in\n    tag_22:\n      mload(0x40)\n      dup1\n      swap2\n      sub\n      swap1\n      return\n        /* \"contracts/wtom.sol\":1423:1621  function approve(address spender, uint value) public returns(bool) {\r... */\n    tag_4:\n      tag_24\n      0x04\n      dup1\n      calldatasize\n      sub\n      dup2\n      add\n      swap1\n      tag_25\n      swap2\n      swap1\n      tag_26\n      jump\t// in\n    tag_25:\n      tag_27\n      jump\t// in\n    tag_24:\n      mload(0x40)\n      tag_28\n      swap2\n      swap1\n      tag_29\n      jump\t// in\n    tag_28:\n      mload(0x40)\n      dup1\n      swap2\n      sub\n      swap1\n      return\n        /* \"contracts/wtom.sol\":1636:1715  function getBalance() view public returns(int){\r... */\n    tag_5:\n      tag_30\n      tag_31\n      jump\t// in\n    tag_30:\n      mload(0x40)\n      tag_32\n      swap2\n      swap1\n      tag_33\n      jump\t// in\n    tag_32:\n      mload(0x40)\n      dup1\n      swap2\n      sub\n      swap1\n      return\n        /* \"contracts/wtom.sol\":205:256  uint public totalSupply = 10000000000000 * 10 ** 18 */\n    tag_6:\n      tag_34\n      tag_35\n      jump\t// in\n    tag_34:\n      mload(0x40)\n      tag_36\n      swap2\n      swap1\n      tag_37\n      jump\t// in\n    tag_36:\n      mload(0x40)\n      dup1\n      swap2\n      sub\n      swap1\n      return\n        /* \"contracts/wtom.sol\":1057:1415  function transferFrom(address from, address to, uint value) public returns(bool) {\r... */\n    tag_7:\n      tag_38\n      0x04\n      dup1\n      calldatasize\n      sub\n      dup2\n      add\n      swap1\n      tag_39\n      swap2\n      swap1\n      tag_40\n      jump\t// in\n    tag_39:\n      tag_41\n      jump\t// in\n    tag_38:\n      mload(0x40)\n      tag_42\n      swap2\n      swap1\n      tag_29\n      jump\t// in\n    tag_42:\n      mload(0x40)\n      dup1\n      swap2\n      sub\n      swap1\n      return\n        /* \"contracts/wtom.sol\":91:130  mapping(address=> uint) public balances */\n    tag_8:\n      tag_43\n      0x04\n      dup1\n      calldatasize\n      sub\n      dup2\n      add\n      swap1\n      tag_44\n      swap2\n      swap1\n      tag_45\n      jump\t// in\n    tag_44:\n      tag_46\n      jump\t// in\n    tag_43:\n      mload(0x40)\n      tag_47\n      swap2\n      swap1\n      tag_37\n      jump\t// in\n    tag_47:\n      mload(0x40)\n      dup1\n      swap2\n      sub\n      swap1\n      return\n        /* \"contracts/wtom.sol\":339:364  uint public decimals = 18 */\n    tag_9:\n      tag_48\n      tag_49\n      jump\t// in\n    tag_48:\n      mload(0x40)\n      tag_50\n      swap2\n      swap1\n      tag_37\n      jump\t// in\n    tag_50:\n      mload(0x40)\n      dup1\n      swap2\n      sub\n      swap1\n      return\n        /* \"contracts/wtom.sol\":659:760  function balanceOf(address owner) public view returns(uint) {\r... */\n    tag_10:\n      tag_51\n      0x04\n      dup1\n      calldatasize\n      sub\n      dup2\n      add\n      swap1\n      tag_52\n      swap2\n      swap1\n      tag_45\n      jump\t// in\n    tag_52:\n      tag_53\n      jump\t// in\n    tag_51:\n      mload(0x40)\n      tag_54\n      swap2\n      swap1\n      tag_37\n      jump\t// in\n    tag_54:\n      mload(0x40)\n      dup1\n      swap2\n      sub\n      swap1\n      return\n        /* \"contracts/wtom.sol\":1810:1897  function withdrawBalance(int amt) public {\r... */\n    tag_11:\n      tag_55\n      0x04\n      dup1\n      calldatasize\n      sub\n      dup2\n      add\n      swap1\n      tag_56\n      swap2\n      swap1\n      tag_57\n      jump\t// in\n    tag_56:\n      tag_58\n      jump\t// in\n    tag_55:\n      stop\n        /* \"contracts/wtom.sol\":304:332  string public symbol = \"KAT\" */\n    tag_12:\n      tag_59\n      tag_60\n      jump\t// in\n    tag_59:\n      mload(0x40)\n      tag_61\n      swap2\n      swap1\n      tag_23\n      jump\t// in\n    tag_61:\n      mload(0x40)\n      dup1\n      swap2\n      sub\n      swap1\n      return\n        /* \"contracts/wtom.sol\":768:1049  function transfer(address to, uint value) public returns(bool) {\r... */\n    tag_13:\n      tag_62\n      0x04\n      dup1\n      calldatasize\n      sub\n      dup2\n      add\n      swap1\n      tag_63\n      swap2\n      swap1\n      tag_26\n      jump\t// in\n    tag_63:\n      tag_64\n      jump\t// in\n    tag_62:\n      mload(0x40)\n      tag_65\n      swap2\n      swap1\n      tag_29\n      jump\t// in\n    tag_65:\n      mload(0x40)\n      dup1\n      swap2\n      sub\n      swap1\n      return\n        /* \"contracts/wtom.sol\":375:393  int public balance */\n    tag_14:\n      tag_66\n      tag_67\n      jump\t// in\n    tag_66:\n      mload(0x40)\n      tag_68\n      swap2\n      swap1\n      tag_33\n      jump\t// in\n    tag_68:\n      mload(0x40)\n      dup1\n      swap2\n      sub\n      swap1\n      return\n        /* \"contracts/wtom.sol\":137:198  mapping(address => mapping(address => uint)) public allowance */\n    tag_15:\n      tag_69\n      0x04\n      dup1\n      calldatasize\n      sub\n      dup2\n      add\n      swap1\n      tag_70\n      swap2\n      swap1\n      tag_71\n      jump\t// in\n    tag_70:\n      tag_72\n      jump\t// in\n    tag_69:\n      mload(0x40)\n      tag_73\n      swap2\n      swap1\n      tag_37\n      jump\t// in\n    tag_73:\n      mload(0x40)\n      dup1\n      swap2\n      sub\n      swap1\n      return\n        /* \"contracts/wtom.sol\":1723:1804  function depositBalance(int amt) public {\r... */\n    tag_16:\n      tag_74\n      0x04\n      dup1\n      calldatasize\n      sub\n      dup2\n      add\n      swap1\n      tag_75\n      swap2\n      swap1\n      tag_57\n      jump\t// in\n    tag_75:\n      tag_76\n      jump\t// in\n    tag_74:\n      stop\n        /* \"contracts/wtom.sol\":263:297  string public name = \"KAME TOKENs\" */\n    tag_21:\n      0x03\n      dup1\n      sload\n      tag_77\n      swap1\n      tag_78\n      jump\t// in\n    tag_77:\n      dup1\n      0x1f\n      add\n      0x20\n      dup1\n      swap2\n      div\n      mul\n      0x20\n      add\n      mload(0x40)\n      swap1\n      dup2\n      add\n      0x40\n      mstore\n      dup1\n      swap3\n      swap2\n      swap1\n      dup2\n      dup2\n      mstore\n      0x20\n      add\n      dup3\n      dup1\n      sload\n      tag_79\n      swap1\n      tag_78\n      jump\t// in\n    tag_79:\n      dup1\n      iszero\n      tag_80\n      jumpi\n      dup1\n      0x1f\n      lt\n      tag_81\n      jumpi\n      0x0100\n      dup1\n      dup4\n      sload\n      div\n      mul\n      dup4\n      mstore\n      swap2\n      0x20\n      add\n      swap2\n      jump(tag_80)\n    tag_81:\n      dup3\n      add\n      swap2\n      swap1\n      0x00\n      mstore\n      keccak256(0x00, 0x20)\n      swap1\n    tag_82:\n      dup2\n      sload\n      dup2\n      mstore\n      swap1\n      0x01\n      add\n      swap1\n      0x20\n      add\n      dup1\n      dup4\n      gt\n      tag_82\n      jumpi\n      dup3\n      swap1\n      sub\n      0x1f\n      and\n      dup3\n      add\n      swap2\n    tag_80:\n      pop\n      pop\n      pop\n      pop\n      pop\n      dup2\n      jump\t// out\n        /* \"contracts/wtom.sol\":1423:1621  function approve(address spender, uint value) public returns(bool) {\r... */\n    tag_27:\n        /* \"contracts/wtom.sol\":1484:1488  bool */\n      0x00\n        /* \"contracts/wtom.sol\":1534:1539  value */\n      dup2\n        /* \"contracts/wtom.sol\":1501:1510  allowance */\n      0x01\n        /* \"contracts/wtom.sol\":1501:1522  allowance[msg.sender] */\n      0x00\n        /* \"contracts/wtom.sol\":1511:1521  msg.sender */\n      caller\n        /* \"contracts/wtom.sol\":1501:1522  allowance[msg.sender] */\n      0xffffffffffffffffffffffffffffffffffffffff\n      and\n      0xffffffffffffffffffffffffffffffffffffffff\n      and\n      dup2\n      mstore\n      0x20\n      add\n      swap1\n      dup2\n      mstore\n      0x20\n      add\n      0x00\n      keccak256\n        /* \"contracts/wtom.sol\":1501:1531  allowance[msg.sender][spender] */\n      0x00\n        /* \"contracts/wtom.sol\":1523:1530  spender */\n      dup6\n        /* \"contracts/wtom.sol\":1501:1531  allowance[msg.sender][spender] */\n      0xffffffffffffffffffffffffffffffffffffffff\n      and\n      0xffffffffffffffffffffffffffffffffffffffff\n      and\n      dup2\n      mstore\n      0x20\n      add\n      swap1\n      dup2\n      mstore\n      0x20\n      add\n      0x00\n      keccak256\n        /* \"contracts/wtom.sol\":1501:1539  allowance[msg.sender][spender] = value */\n      dup2\n      swap1\n      sstore\n      pop\n        /* \"contracts/wtom.sol\":1576:1583  spender */\n      dup3\n        /* \"contracts/wtom.sol\":1555:1591  Approval(msg.sender, spender, value) */\n      0xffffffffffffffffffffffffffffffffffffffff\n      and\n        /* \"contracts/wtom.sol\":1564:1574  msg.sender */\n      caller\n        /* \"contracts/wtom.sol\":1555:1591  Approval(msg.sender, spender, value) */\n      0xffffffffffffffffffffffffffffffffffffffff\n      and\n      0x8c5be1e5ebec7d5bd14f71427d1e84f3dd0314c0f7b2291e5b200ac8c7c3b925\n        /* \"contracts/wtom.sol\":1585:1590  value */\n      dup5\n        /* \"contracts/wtom.sol\":1555:1591  Approval(msg.sender, spender, value) */\n      mload(0x40)\n      tag_84\n      swap2\n      swap1\n      tag_37\n      jump\t// in\n    tag_84:\n      mload(0x40)\n      dup1\n      swap2\n      sub\n      swap1\n      log3\n        /* \"contracts/wtom.sol\":1609:1613  true */\n      0x01\n        /* \"contracts/wtom.sol\":1602:1613  return true */\n      swap1\n      pop\n        /* \"contracts/wtom.sol\":1423:1621  function approve(address spender, uint value) public returns(bool) {\r... */\n      swap3\n      swap2\n      pop\n      pop\n      jump\t// out\n        /* \"contracts/wtom.sol\":1636:1715  function getBalance() view public returns(int){\r... */\n    tag_31:\n        /* \"contracts/wtom.sol\":1678:1681  int */\n      0x00\n        /* \"contracts/wtom.sol\":1700:1707  balance */\n      sload(0x06)\n        /* \"contracts/wtom.sol\":1693:1707  return balance */\n      swap1\n      pop\n        /* \"contracts/wtom.sol\":1636:1715  function getBalance() view public returns(int){\r... */\n      swap1\n      jump\t// out\n        /* \"contracts/wtom.sol\":205:256  uint public totalSupply = 10000000000000 * 10 ** 18 */\n    tag_35:\n      sload(0x02)\n      dup2\n      jump\t// out\n        /* \"contracts/wtom.sol\":1057:1415  function transferFrom(address from, address to, uint value) public returns(bool) {\r... */\n    tag_41:\n        /* \"contracts/wtom.sol\":1132:1136  bool */\n      0x00\n        /* \"contracts/wtom.sol\":1176:1181  value */\n      dup2\n        /* \"contracts/wtom.sol\":1157:1172  balanceOf(from) */\n      tag_87\n        /* \"contracts/wtom.sol\":1167:1171  from */\n      dup6\n        /* \"contracts/wtom.sol\":1157:1166  balanceOf */\n      tag_53\n        /* \"contracts/wtom.sol\":1157:1172  balanceOf(from) */\n      jump\t// in\n    tag_87:\n        /* \"contracts/wtom.sol\":1157:1181  balanceOf(from) >= value */\n      lt\n      iszero\n        /* \"contracts/wtom.sol\":1149:1201  require(balanceOf(from) >= value, 'balance too low') */\n      tag_88\n      jumpi\n      mload(0x40)\n      0x08c379a000000000000000000000000000000000000000000000000000000000\n      dup2\n      mstore\n      0x04\n      add\n      tag_89\n      swap1\n      tag_90\n      jump\t// in\n    tag_89:\n      mload(0x40)\n      dup1\n      swap2\n      sub\n      swap1\n      revert\n    tag_88:\n        /* \"contracts/wtom.sol\":1251:1256  value */\n      dup2\n        /* \"contracts/wtom.sol\":1220:1229  allowance */\n      0x01\n        /* \"contracts/wtom.sol\":1220:1235  allowance[from] */\n      0x00\n        /* \"contracts/wtom.sol\":1230:1234  from */\n      dup7\n        /* \"contracts/wtom.sol\":1220:1235  allowance[from] */\n      0xffffffffffffffffffffffffffffffffffffffff\n      and\n      0xffffffffffffffffffffffffffffffffffffffff\n      and\n      dup2\n      mstore\n      0x20\n      add\n      swap1\n      dup2\n      mstore\n      0x20\n      add\n      0x00\n      keccak256\n        /* \"contracts/wtom.sol\":1220:1247  allowance[from][msg.sender] */\n      0x00\n        /* \"contracts/wtom.sol\":1236:1246  msg.sender */\n      caller\n        /* \"contracts/wtom.sol\":1220:1247  allowance[from][msg.sender] */\n      0xffffffffffffffffffffffffffffffffffffffff\n      and\n      0xffffffffffffffffffffffffffffffffffffffff\n      and\n      dup2\n      mstore\n      0x20\n      add\n      swap1\n      dup2\n      mstore\n      0x20\n      add\n      0x00\n      keccak256\n      sload\n        /* \"contracts/wtom.sol\":1220:1256  allowance[from][msg.sender] >= value */\n      lt\n      iszero\n        /* \"contracts/wtom.sol\":1212:1278  require(allowance[from][msg.sender] >= value, 'allowance too low') */\n      tag_91\n      jumpi\n      mload(0x40)\n      0x08c379a000000000000000000000000000000000000000000000000000000000\n      dup2\n      mstore\n      0x04\n      add\n      tag_92\n      swap1\n      tag_93\n      jump\t// in\n    tag_92:\n      mload(0x40)\n      dup1\n      swap2\n      sub\n      swap1\n      revert\n    tag_91:\n        /* \"contracts/wtom.sol\":1305:1310  value */\n      dup2\n        /* \"contracts/wtom.sol\":1289:1297  balances */\n      0x00\n        /* \"contracts/wtom.sol\":1289:1301  balances[to] */\n      dup1\n        /* \"contracts/wtom.sol\":1298:1300  to */\n      dup6\n        /* \"contracts/wtom.sol\":1289:1301  balances[to] */\n      0xffffffffffffffffffffffffffffffffffffffff\n      and\n      0xffffffffffffffffffffffffffffffffffffffff\n      and\n      dup2\n      mstore\n      0x20\n      add\n      swap1\n      dup2\n      mstore\n      0x20\n      add\n      0x00\n      keccak256\n      0x00\n        /* \"contracts/wtom.sol\":1289:1310  balances[to] += value */\n      dup3\n      dup3\n      sload\n      tag_94\n      swap2\n      swap1\n      tag_95\n      jump\t// in\n    tag_94:\n      swap3\n      pop\n      pop\n      dup2\n      swap1\n      sstore\n      pop\n        /* \"contracts/wtom.sol\":1339:1344  value */\n      dup2\n        /* \"contracts/wtom.sol\":1321:1329  balances */\n      0x00\n        /* \"contracts/wtom.sol\":1321:1335  balances[from] */\n      dup1\n        /* \"contracts/wtom.sol\":1330:1334  from */\n      dup7\n        /* \"contracts/wtom.sol\":1321:1335  balances[from] */\n      0xffffffffffffffffffffffffffffffffffffffff\n      and\n      0xffffffffffffffffffffffffffffffffffffffff\n      and\n      dup2\n      mstore\n      0x20\n      add\n      swap1\n      dup2\n      mstore\n      0x20\n      add\n      0x00\n      keccak256\n      0x00\n        /* \"contracts/wtom.sol\":1321:1344  balances[from] -= value */\n      dup3\n      dup3\n      sload\n      tag_96\n      swap2\n      swap1\n      tag_97\n      jump\t// in\n    tag_96:\n      swap3\n      pop\n      pop\n      dup2\n      swap1\n      sstore\n      pop\n        /* \"contracts/wtom.sol\":1375:1377  to */\n      dup3\n        /* \"contracts/wtom.sol\":1360:1385  Transfer(from, to, value) */\n      0xffffffffffffffffffffffffffffffffffffffff\n      and\n        /* \"contracts/wtom.sol\":1369:1373  from */\n      dup5\n        /* \"contracts/wtom.sol\":1360:1385  Transfer(from, to, value) */\n      0xffffffffffffffffffffffffffffffffffffffff\n      and\n      0xddf252ad1be2c89b69c2b068fc378daa952ba7f163c4a11628f55a4df523b3ef\n        /* \"contracts/wtom.sol\":1379:1384  value */\n      dup5\n        /* \"contracts/wtom.sol\":1360:1385  Transfer(from, to, value) */\n      mload(0x40)\n      tag_98\n      swap2\n      swap1\n      tag_37\n      jump\t// in\n    tag_98:\n      mload(0x40)\n      dup1\n      swap2\n      sub\n      swap1\n      log3\n        /* \"contracts/wtom.sol\":1403:1407  true */\n      0x01\n        /* \"contracts/wtom.sol\":1396:1407  return true */\n      swap1\n      pop\n        /* \"contracts/wtom.sol\":1057:1415  function transferFrom(address from, address to, uint value) public returns(bool) {\r... */\n      swap4\n      swap3\n      pop\n      pop\n      pop\n      jump\t// out\n        /* \"contracts/wtom.sol\":91:130  mapping(address=> uint) public balances */\n    tag_46:\n      mstore(0x20, 0x00)\n      dup1\n      0x00\n      mstore\n      keccak256(0x00, 0x40)\n      0x00\n      swap2\n      pop\n      swap1\n      pop\n      sload\n      dup2\n      jump\t// out\n        /* \"contracts/wtom.sol\":339:364  uint public decimals = 18 */\n    tag_49:\n      sload(0x05)\n      dup2\n      jump\t// out\n        /* \"contracts/wtom.sol\":659:760  function balanceOf(address owner) public view returns(uint) {\r... */\n    tag_53:\n        /* \"contracts/wtom.sol\":713:717  uint */\n      0x00\n        /* \"contracts/wtom.sol\":737:745  balances */\n      dup1\n        /* \"contracts/wtom.sol\":737:752  balances[owner] */\n      0x00\n        /* \"contracts/wtom.sol\":746:751  owner */\n      dup4\n        /* \"contracts/wtom.sol\":737:752  balances[owner] */\n      0xffffffffffffffffffffffffffffffffffffffff\n      and\n      0xffffffffffffffffffffffffffffffffffffffff\n      and\n      dup2\n      mstore\n      0x20\n      add\n      swap1\n      dup2\n      mstore\n      0x20\n      add\n      0x00\n      keccak256\n      sload\n        /* \"contracts/wtom.sol\":730:752  return balances[owner] */\n      swap1\n      pop\n        /* \"contracts/wtom.sol\":659:760  function balanceOf(address owner) public view returns(uint) {\r... */\n      swap2\n      swap1\n      pop\n      jump\t// out\n        /* \"contracts/wtom.sol\":1810:1897  function withdrawBalance(int amt) public {\r... */\n    tag_58:\n        /* \"contracts/wtom.sol\":1886:1889  amt */\n      dup1\n        /* \"contracts/wtom.sol\":1883:1884  5 */\n      0x05\n        /* \"contracts/wtom.sol\":1880:1882  10 */\n      0x0a\n        /* \"contracts/wtom.sol\":1871:1878  balance */\n      sload(0x06)\n        /* \"contracts/wtom.sol\":1871:1882  balance -10 */\n      tag_101\n      swap2\n      swap1\n      tag_102\n      jump\t// in\n    tag_101:\n        /* \"contracts/wtom.sol\":1871:1884  balance -10-5 */\n      tag_103\n      swap2\n      swap1\n      tag_102\n      jump\t// in\n    tag_103:\n        /* \"contracts/wtom.sol\":1871:1889  balance -10-5- amt */\n      tag_104\n      swap2\n      swap1\n      tag_102\n      jump\t// in\n    tag_104:\n        /* \"contracts/wtom.sol\":1863:1870  balance */\n      0x06\n        /* \"contracts/wtom.sol\":1863:1889  balance=balance -10-5- amt */\n      dup2\n      swap1\n      sstore\n      pop\n        /* \"contracts/wtom.sol\":1810:1897  function withdrawBalance(int amt) public {\r... */\n      pop\n      jump\t// out\n        /* \"contracts/wtom.sol\":304:332  string public symbol = \"KAT\" */\n    tag_60:\n      0x04\n      dup1\n      sload\n      tag_105\n      swap1\n      tag_78\n      jump\t// in\n    tag_105:\n      dup1\n      0x1f\n      add\n      0x20\n      dup1\n      swap2\n      div\n      mul\n      0x20\n      add\n      mload(0x40)\n      swap1\n      dup2\n      add\n      0x40\n      mstore\n      dup1\n      swap3\n      swap2\n      swap1\n      dup2\n      dup2\n      mstore\n      0x20\n      add\n      dup3\n      dup1\n      sload\n      tag_106\n      swap1\n      tag_78\n      jump\t// in\n    tag_106:\n      dup1\n      iszero\n      tag_107\n      jumpi\n      dup1\n      0x1f\n      lt\n      tag_108\n      jumpi\n      0x0100\n      dup1\n      dup4\n      sload\n      div\n      mul\n      dup4\n      mstore\n      swap2\n      0x20\n      add\n      swap2\n      jump(tag_107)\n    tag_108:\n      dup3\n      add\n      swap2\n      swap1\n      0x00\n      mstore\n      keccak256(0x00, 0x20)\n      swap1\n    tag_109:\n      dup2\n      sload\n      dup2\n      mstore\n      swap1\n      0x01\n      add\n      swap1\n      0x20\n      add\n      dup1\n      dup4\n      gt\n      tag_109\n      jumpi\n      dup3\n      swap1\n      sub\n      0x1f\n      and\n      dup3\n      add\n      swap2\n    tag_107:\n      pop\n      pop\n      pop\n      pop\n      pop\n      dup2\n      jump\t// out\n        /* \"contracts/wtom.sol\":768:1049  function transfer(address to, uint value) public returns(bool) {\r... */\n    tag_64:\n        /* \"contracts/wtom.sol\":825:829  bool */\n      0x00\n        /* \"contracts/wtom.sol\":875:880  value */\n      dup2\n        /* \"contracts/wtom.sol\":850:871  balanceOf(msg.sender) */\n      tag_111\n        /* \"contracts/wtom.sol\":860:870  msg.sender */\n      caller\n        /* \"contracts/wtom.sol\":850:859  balanceOf */\n      tag_53\n        /* \"contracts/wtom.sol\":850:871  balanceOf(msg.sender) */\n      jump\t// in\n    tag_111:\n        /* \"contracts/wtom.sol\":850:880  balanceOf(msg.sender) >= value */\n      lt\n      iszero\n        /* \"contracts/wtom.sol\":842:900  require(balanceOf(msg.sender) >= value, 'balance too low') */\n      tag_112\n      jumpi\n      mload(0x40)\n      0x08c379a000000000000000000000000000000000000000000000000000000000\n      dup2\n      mstore\n      0x04\n      add\n      tag_113\n      swap1\n      tag_90\n      jump\t// in\n    tag_113:\n      mload(0x40)\n      dup1\n      swap2\n      sub\n      swap1\n      revert\n    tag_112:\n        /* \"contracts/wtom.sol\":927:932  value */\n      dup2\n        /* \"contracts/wtom.sol\":911:919  balances */\n      0x00\n        /* \"contracts/wtom.sol\":911:923  balances[to] */\n      dup1\n        /* \"contracts/wtom.sol\":920:922  to */\n      dup6\n        /* \"contracts/wtom.sol\":911:923  balances[to] */\n      0xffffffffffffffffffffffffffffffffffffffff\n      and\n      0xffffffffffffffffffffffffffffffffffffffff\n      and\n      dup2\n      mstore\n      0x20\n      add\n      swap1\n      dup2\n      mstore\n      0x20\n      add\n      0x00\n      keccak256\n      0x00\n        /* \"contracts/wtom.sol\":911:932  balances[to] += value */\n      dup3\n      dup3\n      sload\n      tag_114\n      swap2\n      swap1\n      tag_95\n      jump\t// in\n    tag_114:\n      swap3\n      pop\n      pop\n      dup2\n      swap1\n      sstore\n      pop\n        /* \"contracts/wtom.sol\":967:972  value */\n      dup2\n        /* \"contracts/wtom.sol\":943:951  balances */\n      0x00\n        /* \"contracts/wtom.sol\":943:963  balances[msg.sender] */\n      dup1\n        /* \"contracts/wtom.sol\":952:962  msg.sender */\n      caller\n        /* \"contracts/wtom.sol\":943:963  balances[msg.sender] */\n      0xffffffffffffffffffffffffffffffffffffffff\n      and\n      0xffffffffffffffffffffffffffffffffffffffff\n      and\n      dup2\n      mstore\n      0x20\n      add\n      swap1\n      dup2\n      mstore\n      0x20\n      add\n      0x00\n      keccak256\n      0x00\n        /* \"contracts/wtom.sol\":943:972  balances[msg.sender] -= value */\n      dup3\n      dup3\n      sload\n      tag_115\n      swap2\n      swap1\n      tag_97\n      jump\t// in\n    tag_115:\n      swap3\n      pop\n      pop\n      dup2\n      swap1\n      sstore\n      pop\n        /* \"contracts/wtom.sol\":1009:1011  to */\n      dup3\n        /* \"contracts/wtom.sol\":988:1019  Transfer(msg.sender, to, value) */\n      0xffffffffffffffffffffffffffffffffffffffff\n      and\n        /* \"contracts/wtom.sol\":997:1007  msg.sender */\n      caller\n        /* \"contracts/wtom.sol\":988:1019  Transfer(msg.sender, to, value) */\n      0xffffffffffffffffffffffffffffffffffffffff\n      and\n      0xddf252ad1be2c89b69c2b068fc378daa952ba7f163c4a11628f55a4df523b3ef\n        /* \"contracts/wtom.sol\":1013:1018  value */\n      dup5\n        /* \"contracts/wtom.sol\":988:1019  Transfer(msg.sender, to, value) */\n      mload(0x40)\n      tag_116\n      swap2\n      swap1\n      tag_37\n      jump\t// in\n    tag_116:\n      mload(0x40)\n      dup1\n      swap2\n      sub\n      swap1\n      log3\n        /* \"contracts/wtom.sol\":1037:1041  true */\n      0x01\n        /* \"contracts/wtom.sol\":1030:1041  return true */\n      swap1\n      pop\n        /* \"contracts/wtom.sol\":768:1049  function transfer(address to, uint value) public returns(bool) {\r... */\n      swap3\n      swap2\n      pop\n      pop\n      jump\t// out\n        /* \"contracts/wtom.sol\":375:393  int public balance */\n    tag_67:\n      sload(0x06)\n      dup2\n      jump\t// out\n        /* \"contracts/wtom.sol\":137:198  mapping(address => mapping(address => uint)) public allowance */\n    tag_72:\n      mstore(0x20, 0x01)\n      dup2\n      0x00\n      mstore\n      mstore(0x20, keccak256(0x00, 0x40))\n      dup1\n      0x00\n      mstore\n      keccak256(0x00, 0x40)\n      0x00\n      swap2\n      pop\n      swap2\n      pop\n      pop\n      sload\n      dup2\n      jump\t// out\n        /* \"contracts/wtom.sol\":1723:1804  function depositBalance(int amt) public {\r... */\n    tag_76:\n        /* \"contracts/wtom.sol\":1793:1796  amt */\n      dup1\n        /* \"contracts/wtom.sol\":1783:1790  balance */\n      sload(0x06)\n        /* \"contracts/wtom.sol\":1783:1796  balance + amt */\n      tag_118\n      swap2\n      swap1\n      tag_119\n      jump\t// in\n    tag_118:\n        /* \"contracts/wtom.sol\":1775:1782  balance */\n      0x06\n        /* \"contracts/wtom.sol\":1775:1796  balance=balance + amt */\n      dup2\n      swap1\n      sstore\n      pop\n        /* \"contracts/wtom.sol\":1723:1804  function depositBalance(int amt) public {\r... */\n      pop\n      jump\t// out\n        /* \"#utility.yul\":7:146   */\n    tag_121:\n        /* \"#utility.yul\":53:58   */\n      0x00\n        /* \"#utility.yul\":91:97   */\n      dup2\n        /* \"#utility.yul\":78:98   */\n      calldataload\n        /* \"#utility.yul\":69:98   */\n      swap1\n      pop\n        /* \"#utility.yul\":107:140   */\n      tag_123\n        /* \"#utility.yul\":134:139   */\n      dup2\n        /* \"#utility.yul\":107:140   */\n      tag_124\n      jump\t// in\n    tag_123:\n        /* \"#utility.yul\":7:146   */\n      swap3\n      swap2\n      pop\n      pop\n      jump\t// out\n        /* \"#utility.yul\":152:289   */\n    tag_125:\n        /* \"#utility.yul\":197:202   */\n      0x00\n        /* \"#utility.yul\":235:241   */\n      dup2\n        /* \"#utility.yul\":222:242   */\n      calldataload\n        /* \"#utility.yul\":213:242   */\n      swap1\n      pop\n        /* \"#utility.yul\":251:283   */\n      tag_127\n        /* \"#utility.yul\":277:282   */\n      dup2\n        /* \"#utility.yul\":251:283   */\n      tag_128\n      jump\t// in\n    tag_127:\n        /* \"#utility.yul\":152:289   */\n      swap3\n      swap2\n      pop\n      pop\n      jump\t// out\n        /* \"#utility.yul\":295:434   */\n    tag_129:\n        /* \"#utility.yul\":341:346   */\n      0x00\n        /* \"#utility.yul\":379:385   */\n      dup2\n        /* \"#utility.yul\":366:386   */\n      calldataload\n        /* \"#utility.yul\":357:386   */\n      swap1\n      pop\n        /* \"#utility.yul\":395:428   */\n      tag_131\n        /* \"#utility.yul\":422:427   */\n      dup2\n        /* \"#utility.yul\":395:428   */\n      tag_132\n      jump\t// in\n    tag_131:\n        /* \"#utility.yul\":295:434   */\n      swap3\n      swap2\n      pop\n      pop\n      jump\t// out\n        /* \"#utility.yul\":440:769   */\n    tag_45:\n        /* \"#utility.yul\":499:505   */\n      0x00\n        /* \"#utility.yul\":548:550   */\n      0x20\n        /* \"#utility.yul\":536:545   */\n      dup3\n        /* \"#utility.yul\":527:534   */\n      dup5\n        /* \"#utility.yul\":523:546   */\n      sub\n        /* \"#utility.yul\":519:551   */\n      slt\n        /* \"#utility.yul\":516:635   */\n      iszero\n      tag_134\n      jumpi\n        /* \"#utility.yul\":554:633   */\n      tag_135\n      tag_136\n      jump\t// in\n    tag_135:\n        /* \"#utility.yul\":516:635   */\n    tag_134:\n        /* \"#utility.yul\":674:675   */\n      0x00\n        /* \"#utility.yul\":699:752   */\n      tag_137\n        /* \"#utility.yul\":744:751   */\n      dup5\n        /* \"#utility.yul\":735:741   */\n      dup3\n        /* \"#utility.yul\":724:733   */\n      dup6\n        /* \"#utility.yul\":720:742   */\n      add\n        /* \"#utility.yul\":699:752   */\n      tag_121\n      jump\t// in\n    tag_137:\n        /* \"#utility.yul\":689:752   */\n      swap2\n      pop\n        /* \"#utility.yul\":645:762   */\n      pop\n        /* \"#utility.yul\":440:769   */\n      swap3\n      swap2\n      pop\n      pop\n      jump\t// out\n        /* \"#utility.yul\":775:1249   */\n    tag_71:\n        /* \"#utility.yul\":843:849   */\n      0x00\n        /* \"#utility.yul\":851:857   */\n      dup1\n        /* \"#utility.yul\":900:902   */\n      0x40\n        /* \"#utility.yul\":888:897   */\n      dup4\n        /* \"#utility.yul\":879:886   */\n      dup6\n        /* \"#utility.yul\":875:898   */\n      sub\n        /* \"#utility.yul\":871:903   */\n      slt\n        /* \"#utility.yul\":868:987   */\n      iszero\n      tag_139\n      jumpi\n        /* \"#utility.yul\":906:985   */\n      tag_140\n      tag_136\n      jump\t// in\n    tag_140:\n        /* \"#utility.yul\":868:987   */\n    tag_139:\n        /* \"#utility.yul\":1026:1027   */\n      0x00\n        /* \"#utility.yul\":1051:1104   */\n      tag_141\n        /* \"#utility.yul\":1096:1103   */\n      dup6\n        /* \"#utility.yul\":1087:1093   */\n      dup3\n        /* \"#utility.yul\":1076:1085   */\n      dup7\n        /* \"#utility.yul\":1072:1094   */\n      add\n        /* \"#utility.yul\":1051:1104   */\n      tag_121\n      jump\t// in\n    tag_141:\n        /* \"#utility.yul\":1041:1104   */\n      swap3\n      pop\n        /* \"#utility.yul\":997:1114   */\n      pop\n        /* \"#utility.yul\":1153:1155   */\n      0x20\n        /* \"#utility.yul\":1179:1232   */\n      tag_142\n        /* \"#utility.yul\":1224:1231   */\n      dup6\n        /* \"#utility.yul\":1215:1221   */\n      dup3\n        /* \"#utility.yul\":1204:1213   */\n      dup7\n        /* \"#utility.yul\":1200:1222   */\n      add\n        /* \"#utility.yul\":1179:1232   */\n      tag_121\n      jump\t// in\n    tag_142:\n        /* \"#utility.yul\":1169:1232   */\n      swap2\n      pop\n        /* \"#utility.yul\":1124:1242   */\n      pop\n        /* \"#utility.yul\":775:1249   */\n      swap3\n      pop\n      swap3\n      swap1\n      pop\n      jump\t// out\n        /* \"#utility.yul\":1255:1874   */\n    tag_40:\n        /* \"#utility.yul\":1332:1338   */\n      0x00\n        /* \"#utility.yul\":1340:1346   */\n      dup1\n        /* \"#utility.yul\":1348:1354   */\n      0x00\n        /* \"#utility.yul\":1397:1399   */\n      0x60\n        /* \"#utility.yul\":1385:1394   */\n      dup5\n        /* \"#utility.yul\":1376:1383   */\n      dup7\n        /* \"#utility.yul\":1372:1395   */\n      sub\n        /* \"#utility.yul\":1368:1400   */\n      slt\n        /* \"#utility.yul\":1365:1484   */\n      iszero\n      tag_144\n      jumpi\n        /* \"#utility.yul\":1403:1482   */\n      tag_145\n      tag_136\n      jump\t// in\n    tag_145:\n        /* \"#utility.yul\":1365:1484   */\n    tag_144:\n        /* \"#utility.yul\":1523:1524   */\n      0x00\n        /* \"#utility.yul\":1548:1601   */\n      tag_146\n        /* \"#utility.yul\":1593:1600   */\n      dup7\n        /* \"#utility.yul\":1584:1590   */\n      dup3\n        /* \"#utility.yul\":1573:1582   */\n      dup8\n        /* \"#utility.yul\":1569:1591   */\n      add\n        /* \"#utility.yul\":1548:1601   */\n      tag_121\n      jump\t// in\n    tag_146:\n        /* \"#utility.yul\":1538:1601   */\n      swap4\n      pop\n        /* \"#utility.yul\":1494:1611   */\n      pop\n        /* \"#utility.yul\":1650:1652   */\n      0x20\n        /* \"#utility.yul\":1676:1729   */\n      tag_147\n        /* \"#utility.yul\":1721:1728   */\n      dup7\n        /* \"#utility.yul\":1712:1718   */\n      dup3\n        /* \"#utility.yul\":1701:1710   */\n      dup8\n        /* \"#utility.yul\":1697:1719   */\n      add\n        /* \"#utility.yul\":1676:1729   */\n      tag_121\n      jump\t// in\n    tag_147:\n        /* \"#utility.yul\":1666:1729   */\n      swap3\n      pop\n        /* \"#utility.yul\":1621:1739   */\n      pop\n        /* \"#utility.yul\":1778:1780   */\n      0x40\n        /* \"#utility.yul\":1804:1857   */\n      tag_148\n        /* \"#utility.yul\":1849:1856   */\n      dup7\n        /* \"#utility.yul\":1840:1846   */\n      dup3\n        /* \"#utility.yul\":1829:1838   */\n      dup8\n        /* \"#utility.yul\":1825:1847   */\n      add\n        /* \"#utility.yul\":1804:1857   */\n      tag_129\n      jump\t// in\n    tag_148:\n        /* \"#utility.yul\":1794:1857   */\n      swap2\n      pop\n        /* \"#utility.yul\":1749:1867   */\n      pop\n        /* \"#utility.yul\":1255:1874   */\n      swap3\n      pop\n      swap3\n      pop\n      swap3\n      jump\t// out\n        /* \"#utility.yul\":1880:2354   */\n    tag_26:\n        /* \"#utility.yul\":1948:1954   */\n      0x00\n        /* \"#utility.yul\":1956:1962   */\n      dup1\n        /* \"#utility.yul\":2005:2007   */\n      0x40\n        /* \"#utility.yul\":1993:2002   */\n      dup4\n        /* \"#utility.yul\":1984:1991   */\n      dup6\n        /* \"#utility.yul\":1980:2003   */\n      sub\n        /* \"#utility.yul\":1976:2008   */\n      slt\n        /* \"#utility.yul\":1973:2092   */\n      iszero\n      tag_150\n      jumpi\n        /* \"#utility.yul\":2011:2090   */\n      tag_151\n      tag_136\n      jump\t// in\n    tag_151:\n        /* \"#utility.yul\":1973:2092   */\n    tag_150:\n        /* \"#utility.yul\":2131:2132   */\n      0x00\n        /* \"#utility.yul\":2156:2209   */\n      tag_152\n        /* \"#utility.yul\":2201:2208   */\n      dup6\n        /* \"#utility.yul\":2192:2198   */\n      dup3\n        /* \"#utility.yul\":2181:2190   */\n      dup7\n        /* \"#utility.yul\":2177:2199   */\n      add\n        /* \"#utility.yul\":2156:2209   */\n      tag_121\n      jump\t// in\n    tag_152:\n        /* \"#utility.yul\":2146:2209   */\n      swap3\n      pop\n        /* \"#utility.yul\":2102:2219   */\n      pop\n        /* \"#utility.yul\":2258:2260   */\n      0x20\n        /* \"#utility.yul\":2284:2337   */\n      tag_153\n        /* \"#utility.yul\":2329:2336   */\n      dup6\n        /* \"#utility.yul\":2320:2326   */\n      dup3\n        /* \"#utility.yul\":2309:2318   */\n      dup7\n        /* \"#utility.yul\":2305:2327   */\n      add\n        /* \"#utility.yul\":2284:2337   */\n      tag_129\n      jump\t// in\n    tag_153:\n        /* \"#utility.yul\":2274:2337   */\n      swap2\n      pop\n        /* \"#utility.yul\":2229:2347   */\n      pop\n        /* \"#utility.yul\":1880:2354   */\n      swap3\n      pop\n      swap3\n      swap1\n      pop\n      jump\t// out\n        /* \"#utility.yul\":2360:2687   */\n    tag_57:\n        /* \"#utility.yul\":2418:2424   */\n      0x00\n        /* \"#utility.yul\":2467:2469   */\n      0x20\n        /* \"#utility.yul\":2455:2464   */\n      dup3\n        /* \"#utility.yul\":2446:2453   */\n      dup5\n        /* \"#utility.yul\":2442:2465   */\n      sub\n        /* \"#utility.yul\":2438:2470   */\n      slt\n        /* \"#utility.yul\":2435:2554   */\n      iszero\n      tag_155\n      jumpi\n        /* \"#utility.yul\":2473:2552   */\n      tag_156\n      tag_136\n      jump\t// in\n    tag_156:\n        /* \"#utility.yul\":2435:2554   */\n    tag_155:\n        /* \"#utility.yul\":2593:2594   */\n      0x00\n        /* \"#utility.yul\":2618:2670   */\n      tag_157\n        /* \"#utility.yul\":2662:2669   */\n      dup5\n        /* \"#utility.yul\":2653:2659   */\n      dup3\n        /* \"#utility.yul\":2642:2651   */\n      dup6\n        /* \"#utility.yul\":2638:2660   */\n      add\n        /* \"#utility.yul\":2618:2670   */\n      tag_125\n      jump\t// in\n    tag_157:\n        /* \"#utility.yul\":2608:2670   */\n      swap2\n      pop\n        /* \"#utility.yul\":2564:2680   */\n      pop\n        /* \"#utility.yul\":2360:2687   */\n      swap3\n      swap2\n      pop\n      pop\n      jump\t// out\n        /* \"#utility.yul\":2693:2802   */\n    tag_158:\n        /* \"#utility.yul\":2774:2795   */\n      tag_160\n        /* \"#utility.yul\":2789:2794   */\n      dup2\n        /* \"#utility.yul\":2774:2795   */\n      tag_161\n      jump\t// in\n    tag_160:\n        /* \"#utility.yul\":2769:2772   */\n      dup3\n        /* \"#utility.yul\":2762:2796   */\n      mstore\n        /* \"#utility.yul\":2693:2802   */\n      pop\n      pop\n      jump\t// out\n        /* \"#utility.yul\":2808:2923   */\n    tag_162:\n        /* \"#utility.yul\":2893:2916   */\n      tag_164\n        /* \"#utility.yul\":2910:2915   */\n      dup2\n        /* \"#utility.yul\":2893:2916   */\n      tag_165\n      jump\t// in\n    tag_164:\n        /* \"#utility.yul\":2888:2891   */\n      dup3\n        /* \"#utility.yul\":2881:2917   */\n      mstore\n        /* \"#utility.yul\":2808:2923   */\n      pop\n      pop\n      jump\t// out\n        /* \"#utility.yul\":2929:3293   */\n    tag_166:\n        /* \"#utility.yul\":3017:3020   */\n      0x00\n        /* \"#utility.yul\":3045:3084   */\n      tag_168\n        /* \"#utility.yul\":3078:3083   */\n      dup3\n        /* \"#utility.yul\":3045:3084   */\n      tag_169\n      jump\t// in\n    tag_168:\n        /* \"#utility.yul\":3100:3171   */\n      tag_170\n        /* \"#utility.yul\":3164:3170   */\n      dup2\n        /* \"#utility.yul\":3159:3162   */\n      dup6\n        /* \"#utility.yul\":3100:3171   */\n      tag_171\n      jump\t// in\n    tag_170:\n        /* \"#utility.yul\":3093:3171   */\n      swap4\n      pop\n        /* \"#utility.yul\":3180:3232   */\n      tag_172\n        /* \"#utility.yul\":3225:3231   */\n      dup2\n        /* \"#utility.yul\":3220:3223   */\n      dup6\n        /* \"#utility.yul\":3213:3217   */\n      0x20\n        /* \"#utility.yul\":3206:3211   */\n      dup7\n        /* \"#utility.yul\":3202:3218   */\n      add\n        /* \"#utility.yul\":3180:3232   */\n      tag_173\n      jump\t// in\n    tag_172:\n        /* \"#utility.yul\":3257:3286   */\n      tag_174\n        /* \"#utility.yul\":3279:3285   */\n      dup2\n        /* \"#utility.yul\":3257:3286   */\n      tag_175\n      jump\t// in\n    tag_174:\n        /* \"#utility.yul\":3252:3255   */\n      dup5\n        /* \"#utility.yul\":3248:3287   */\n      add\n        /* \"#utility.yul\":3241:3287   */\n      swap2\n      pop\n        /* \"#utility.yul\":3021:3293   */\n      pop\n        /* \"#utility.yul\":2929:3293   */\n      swap3\n      swap2\n      pop\n      pop\n      jump\t// out\n        /* \"#utility.yul\":3299:3665   */\n    tag_176:\n        /* \"#utility.yul\":3441:3444   */\n      0x00\n        /* \"#utility.yul\":3462:3529   */\n      tag_178\n        /* \"#utility.yul\":3526:3528   */\n      0x0f\n        /* \"#utility.yul\":3521:3524   */\n      dup4\n        /* \"#utility.yul\":3462:3529   */\n      tag_171\n      jump\t// in\n    tag_178:\n        /* \"#utility.yul\":3455:3529   */\n      swap2\n      pop\n        /* \"#utility.yul\":3538:3631   */\n      tag_179\n        /* \"#utility.yul\":3627:3630   */\n      dup3\n        /* \"#utility.yul\":3538:3631   */\n      tag_180\n      jump\t// in\n    tag_179:\n        /* \"#utility.yul\":3656:3658   */\n      0x20\n        /* \"#utility.yul\":3651:3654   */\n      dup3\n        /* \"#utility.yul\":3647:3659   */\n      add\n        /* \"#utility.yul\":3640:3659   */\n      swap1\n      pop\n        /* \"#utility.yul\":3299:3665   */\n      swap2\n      swap1\n      pop\n      jump\t// out\n        /* \"#utility.yul\":3671:4037   */\n    tag_181:\n        /* \"#utility.yul\":3813:3816   */\n      0x00\n        /* \"#utility.yul\":3834:3901   */\n      tag_183\n        /* \"#utility.yul\":3898:3900   */\n      0x11\n        /* \"#utility.yul\":3893:3896   */\n      dup4\n        /* \"#utility.yul\":3834:3901   */\n      tag_171\n      jump\t// in\n    tag_183:\n        /* \"#utility.yul\":3827:3901   */\n      swap2\n      pop\n        /* \"#utility.yul\":3910:4003   */\n      tag_184\n        /* \"#utility.yul\":3999:4002   */\n      dup3\n        /* \"#utility.yul\":3910:4003   */\n      tag_185\n      jump\t// in\n    tag_184:\n        /* \"#utility.yul\":4028:4030   */\n      0x20\n        /* \"#utility.yul\":4023:4026   */\n      dup3\n        /* \"#utility.yul\":4019:4031   */\n      add\n        /* \"#utility.yul\":4012:4031   */\n      swap1\n      pop\n        /* \"#utility.yul\":3671:4037   */\n      swap2\n      swap1\n      pop\n      jump\t// out\n        /* \"#utility.yul\":4043:4161   */\n    tag_186:\n        /* \"#utility.yul\":4130:4154   */\n      tag_188\n        /* \"#utility.yul\":4148:4153   */\n      dup2\n        /* \"#utility.yul\":4130:4154   */\n      tag_189\n      jump\t// in\n    tag_188:\n        /* \"#utility.yul\":4125:4128   */\n      dup3\n        /* \"#utility.yul\":4118:4155   */\n      mstore\n        /* \"#utility.yul\":4043:4161   */\n      pop\n      pop\n      jump\t// out\n        /* \"#utility.yul\":4167:4377   */\n    tag_29:\n        /* \"#utility.yul\":4254:4258   */\n      0x00\n        /* \"#utility.yul\":4292:4294   */\n      0x20\n        /* \"#utility.yul\":4281:4290   */\n      dup3\n        /* \"#utility.yul\":4277:4295   */\n      add\n        /* \"#utility.yul\":4269:4295   */\n      swap1\n      pop\n        /* \"#utility.yul\":4305:4370   */\n      tag_191\n        /* \"#utility.yul\":4367:4368   */\n      0x00\n        /* \"#utility.yul\":4356:4365   */\n      dup4\n        /* \"#utility.yul\":4352:4369   */\n      add\n        /* \"#utility.yul\":4343:4349   */\n      dup5\n        /* \"#utility.yul\":4305:4370   */\n      tag_158\n      jump\t// in\n    tag_191:\n        /* \"#utility.yul\":4167:4377   */\n      swap3\n      swap2\n      pop\n      pop\n      jump\t// out\n        /* \"#utility.yul\":4383:4601   */\n    tag_33:\n        /* \"#utility.yul\":4474:4478   */\n      0x00\n        /* \"#utility.yul\":4512:4514   */\n      0x20\n        /* \"#utility.yul\":4501:4510   */\n      dup3\n        /* \"#utility.yul\":4497:4515   */\n      add\n        /* \"#utility.yul\":4489:4515   */\n      swap1\n      pop\n        /* \"#utility.yul\":4525:4594   */\n      tag_193\n        /* \"#utility.yul\":4591:4592   */\n      0x00\n        /* \"#utility.yul\":4580:4589   */\n      dup4\n        /* \"#utility.yul\":4576:4593   */\n      add\n        /* \"#utility.yul\":4567:4573   */\n      dup5\n        /* \"#utility.yul\":4525:4594   */\n      tag_162\n      jump\t// in\n    tag_193:\n        /* \"#utility.yul\":4383:4601   */\n      swap3\n      swap2\n      pop\n      pop\n      jump\t// out\n        /* \"#utility.yul\":4607:4920   */\n    tag_23:\n        /* \"#utility.yul\":4720:4724   */\n      0x00\n        /* \"#utility.yul\":4758:4760   */\n      0x20\n        /* \"#utility.yul\":4747:4756   */\n      dup3\n        /* \"#utility.yul\":4743:4761   */\n      add\n        /* \"#utility.yul\":4735:4761   */\n      swap1\n      pop\n        /* \"#utility.yul\":4807:4816   */\n      dup2\n        /* \"#utility.yul\":4801:4805   */\n      dup2\n        /* \"#utility.yul\":4797:4817   */\n      sub\n        /* \"#utility.yul\":4793:4794   */\n      0x00\n        /* \"#utility.yul\":4782:4791   */\n      dup4\n        /* \"#utility.yul\":4778:4795   */\n      add\n        /* \"#utility.yul\":4771:4818   */\n      mstore\n        /* \"#utility.yul\":4835:4913   */\n      tag_195\n        /* \"#utility.yul\":4908:4912   */\n      dup2\n        /* \"#utility.yul\":4899:4905   */\n      dup5\n        /* \"#utility.yul\":4835:4913   */\n      tag_166\n      jump\t// in\n    tag_195:\n        /* \"#utility.yul\":4827:4913   */\n      swap1\n      pop\n        /* \"#utility.yul\":4607:4920   */\n      swap3\n      swap2\n      pop\n      pop\n      jump\t// out\n        /* \"#utility.yul\":4926:5345   */\n    tag_90:\n        /* \"#utility.yul\":5092:5096   */\n      0x00\n        /* \"#utility.yul\":5130:5132   */\n      0x20\n        /* \"#utility.yul\":5119:5128   */\n      dup3\n        /* \"#utility.yul\":5115:5133   */\n      add\n        /* \"#utility.yul\":5107:5133   */\n      swap1\n      pop\n        /* \"#utility.yul\":5179:5188   */\n      dup2\n        /* \"#utility.yul\":5173:5177   */\n      dup2\n        /* \"#utility.yul\":5169:5189   */\n      sub\n        /* \"#utility.yul\":5165:5166   */\n      0x00\n        /* \"#utility.yul\":5154:5163   */\n      dup4\n        /* \"#utility.yul\":5150:5167   */\n      add\n        /* \"#utility.yul\":5143:5190   */\n      mstore\n        /* \"#utility.yul\":5207:5338   */\n      tag_197\n        /* \"#utility.yul\":5333:5337   */\n      dup2\n        /* \"#utility.yul\":5207:5338   */\n      tag_176\n      jump\t// in\n    tag_197:\n        /* \"#utility.yul\":5199:5338   */\n      swap1\n      pop\n        /* \"#utility.yul\":4926:5345   */\n      swap2\n      swap1\n      pop\n      jump\t// out\n        /* \"#utility.yul\":5351:5770   */\n    tag_93:\n        /* \"#utility.yul\":5517:5521   */\n      0x00\n        /* \"#utility.yul\":5555:5557   */\n      0x20\n        /* \"#utility.yul\":5544:5553   */\n      dup3\n        /* \"#utility.yul\":5540:5558   */\n      add\n        /* \"#utility.yul\":5532:5558   */\n      swap1\n      pop\n        /* \"#utility.yul\":5604:5613   */\n      dup2\n        /* \"#utility.yul\":5598:5602   */\n      dup2\n        /* \"#utility.yul\":5594:5614   */\n      sub\n        /* \"#utility.yul\":5590:5591   */\n      0x00\n        /* \"#utility.yul\":5579:5588   */\n      dup4\n        /* \"#utility.yul\":5575:5592   */\n      add\n        /* \"#utility.yul\":5568:5615   */\n      mstore\n        /* \"#utility.yul\":5632:5763   */\n      tag_199\n        /* \"#utility.yul\":5758:5762   */\n      dup2\n        /* \"#utility.yul\":5632:5763   */\n      tag_181\n      jump\t// in\n    tag_199:\n        /* \"#utility.yul\":5624:5763   */\n      swap1\n      pop\n        /* \"#utility.yul\":5351:5770   */\n      swap2\n      swap1\n      pop\n      jump\t// out\n        /* \"#utility.yul\":5776:5998   */\n    tag_37:\n        /* \"#utility.yul\":5869:5873   */\n      0x00\n        /* \"#utility.yul\":5907:5909   */\n      0x20\n        /* \"#utility.yul\":5896:5905   */\n      dup3\n        /* \"#utility.yul\":5892:5910   */\n      add\n        /* \"#utility.yul\":5884:5910   */\n      swap1\n      pop\n        /* \"#utility.yul\":5920:5991   */\n      tag_201\n        /* \"#utility.yul\":5988:5989   */\n      0x00\n        /* \"#utility.yul\":5977:5986   */\n      dup4\n        /* \"#utility.yul\":5973:5990   */\n      add\n        /* \"#utility.yul\":5964:5970   */\n      dup5\n        /* \"#utility.yul\":5920:5991   */\n      tag_186\n      jump\t// in\n    tag_201:\n        /* \"#utility.yul\":5776:5998   */\n      swap3\n      swap2\n      pop\n      pop\n      jump\t// out\n        /* \"#utility.yul\":6085:6184   */\n    tag_169:\n        /* \"#utility.yul\":6137:6143   */\n      0x00\n        /* \"#utility.yul\":6171:6176   */\n      dup2\n        /* \"#utility.yul\":6165:6177   */\n      mload\n        /* \"#utility.yul\":6155:6177   */\n      swap1\n      pop\n        /* \"#utility.yul\":6085:6184   */\n      swap2\n      swap1\n      pop\n      jump\t// out\n        /* \"#utility.yul\":6190:6359   */\n    tag_171:\n        /* \"#utility.yul\":6274:6285   */\n      0x00\n        /* \"#utility.yul\":6308:6314   */\n      dup3\n        /* \"#utility.yul\":6303:6306   */\n      dup3\n        /* \"#utility.yul\":6296:6315   */\n      mstore\n        /* \"#utility.yul\":6348:6352   */\n      0x20\n        /* \"#utility.yul\":6343:6346   */\n      dup3\n        /* \"#utility.yul\":6339:6353   */\n      add\n        /* \"#utility.yul\":6324:6353   */\n      swap1\n      pop\n        /* \"#utility.yul\":6190:6359   */\n      swap3\n      swap2\n      pop\n      pop\n      jump\t// out\n        /* \"#utility.yul\":6365:6890   */\n    tag_119:\n        /* \"#utility.yul\":6404:6407   */\n      0x00\n        /* \"#utility.yul\":6423:6442   */\n      tag_207\n        /* \"#utility.yul\":6440:6441   */\n      dup3\n        /* \"#utility.yul\":6423:6442   */\n      tag_165\n      jump\t// in\n    tag_207:\n        /* \"#utility.yul\":6418:6442   */\n      swap2\n      pop\n        /* \"#utility.yul\":6456:6475   */\n      tag_208\n        /* \"#utility.yul\":6473:6474   */\n      dup4\n        /* \"#utility.yul\":6456:6475   */\n      tag_165\n      jump\t// in\n    tag_208:\n        /* \"#utility.yul\":6451:6475   */\n      swap3\n      pop\n        /* \"#utility.yul\":6644:6645   */\n      dup2\n        /* \"#utility.yul\":6576:6642   */\n      0x7fffffffffffffffffffffffffffffffffffffffffffffffffffffffffffffff\n        /* \"#utility.yul\":6572:6646   */\n      sub\n        /* \"#utility.yul\":6569:6570   */\n      dup4\n        /* \"#utility.yul\":6565:6647   */\n      sgt\n        /* \"#utility.yul\":6560:6561   */\n      0x00\n        /* \"#utility.yul\":6557:6558   */\n      dup4\n        /* \"#utility.yul\":6553:6562   */\n      slt\n        /* \"#utility.yul\":6546:6563   */\n      iszero\n        /* \"#utility.yul\":6542:6648   */\n      and\n        /* \"#utility.yul\":6539:6671   */\n      iszero\n      tag_209\n      jumpi\n        /* \"#utility.yul\":6651:6669   */\n      tag_210\n      tag_211\n      jump\t// in\n    tag_210:\n        /* \"#utility.yul\":6539:6671   */\n    tag_209:\n        /* \"#utility.yul\":6831:6832   */\n      dup2\n        /* \"#utility.yul\":6763:6829   */\n      0x8000000000000000000000000000000000000000000000000000000000000000\n        /* \"#utility.yul\":6759:6833   */\n      sub\n        /* \"#utility.yul\":6756:6757   */\n      dup4\n        /* \"#utility.yul\":6752:6834   */\n      slt\n        /* \"#utility.yul\":6748:6749   */\n      0x00\n        /* \"#utility.yul\":6745:6746   */\n      dup4\n        /* \"#utility.yul\":6741:6750   */\n      slt\n        /* \"#utility.yul\":6737:6835   */\n      and\n        /* \"#utility.yul\":6734:6858   */\n      iszero\n      tag_212\n      jumpi\n        /* \"#utility.yul\":6838:6856   */\n      tag_213\n      tag_211\n      jump\t// in\n    tag_213:\n        /* \"#utility.yul\":6734:6858   */\n    tag_212:\n        /* \"#utility.yul\":6882:6883   */\n      dup3\n        /* \"#utility.yul\":6879:6880   */\n      dup3\n        /* \"#utility.yul\":6875:6884   */\n      add\n        /* \"#utility.yul\":6868:6884   */\n      swap1\n      pop\n        /* \"#utility.yul\":6365:6890   */\n      swap3\n      swap2\n      pop\n      pop\n      jump\t// out\n        /* \"#utility.yul\":6896:7201   */\n    tag_95:\n        /* \"#utility.yul\":6936:6939   */\n      0x00\n        /* \"#utility.yul\":6955:6975   */\n      tag_215\n        /* \"#utility.yul\":6973:6974   */\n      dup3\n        /* \"#utility.yul\":6955:6975   */\n      tag_189\n      jump\t// in\n    tag_215:\n        /* \"#utility.yul\":6950:6975   */\n      swap2\n      pop\n        /* \"#utility.yul\":6989:7009   */\n      tag_216\n        /* \"#utility.yul\":7007:7008   */\n      dup4\n        /* \"#utility.yul\":6989:7009   */\n      tag_189\n      jump\t// in\n    tag_216:\n        /* \"#utility.yul\":6984:7009   */\n      swap3\n      pop\n        /* \"#utility.yul\":7143:7144   */\n      dup3\n        /* \"#utility.yul\":7075:7141   */\n      0xffffffffffffffffffffffffffffffffffffffffffffffffffffffffffffffff\n        /* \"#utility.yul\":7071:7145   */\n      sub\n        /* \"#utility.yul\":7068:7069   */\n      dup3\n        /* \"#utility.yul\":7065:7146   */\n      gt\n        /* \"#utility.yul\":7062:7169   */\n      iszero\n      tag_217\n      jumpi\n        /* \"#utility.yul\":7149:7167   */\n      tag_218\n      tag_211\n      jump\t// in\n    tag_218:\n        /* \"#utility.yul\":7062:7169   */\n    tag_217:\n        /* \"#utility.yul\":7193:7194   */\n      dup3\n        /* \"#utility.yul\":7190:7191   */\n      dup3\n        /* \"#utility.yul\":7186:7195   */\n      add\n        /* \"#utility.yul\":7179:7195   */\n      swap1\n      pop\n        /* \"#utility.yul\":6896:7201   */\n      swap3\n      swap2\n      pop\n      pop\n      jump\t// out\n        /* \"#utility.yul\":7207:7734   */\n    tag_102:\n        /* \"#utility.yul\":7246:7250   */\n      0x00\n        /* \"#utility.yul\":7266:7285   */\n      tag_220\n        /* \"#utility.yul\":7283:7284   */\n      dup3\n        /* \"#utility.yul\":7266:7285   */\n      tag_165\n      jump\t// in\n    tag_220:\n        /* \"#utility.yul\":7261:7285   */\n      swap2\n      pop\n        /* \"#utility.yul\":7299:7318   */\n      tag_221\n        /* \"#utility.yul\":7316:7317   */\n      dup4\n        /* \"#utility.yul\":7299:7318   */\n      tag_165\n      jump\t// in\n    tag_221:\n        /* \"#utility.yul\":7294:7318   */\n      swap3\n      pop\n        /* \"#utility.yul\":7488:7489   */\n      dup3\n        /* \"#utility.yul\":7420:7486   */\n      0x8000000000000000000000000000000000000000000000000000000000000000\n        /* \"#utility.yul\":7416:7490   */\n      add\n        /* \"#utility.yul\":7413:7414   */\n      dup3\n        /* \"#utility.yul\":7409:7491   */\n      slt\n        /* \"#utility.yul\":7404:7405   */\n      0x00\n        /* \"#utility.yul\":7401:7402   */\n      dup5\n        /* \"#utility.yul\":7397:7406   */\n      slt\n        /* \"#utility.yul\":7390:7407   */\n      iszero\n        /* \"#utility.yul\":7386:7492   */\n      and\n        /* \"#utility.yul\":7383:7515   */\n      iszero\n      tag_222\n      jumpi\n        /* \"#utility.yul\":7495:7513   */\n      tag_223\n      tag_211\n      jump\t// in\n    tag_223:\n        /* \"#utility.yul\":7383:7515   */\n    tag_222:\n        /* \"#utility.yul\":7674:7675   */\n      dup3\n        /* \"#utility.yul\":7606:7672   */\n      0x7fffffffffffffffffffffffffffffffffffffffffffffffffffffffffffffff\n        /* \"#utility.yul\":7602:7676   */\n      add\n        /* \"#utility.yul\":7599:7600   */\n      dup3\n        /* \"#utility.yul\":7595:7677   */\n      sgt\n        /* \"#utility.yul\":7591:7592   */\n      0x00\n        /* \"#utility.yul\":7588:7589   */\n      dup5\n        /* \"#utility.yul\":7584:7593   */\n      slt\n        /* \"#utility.yul\":7580:7678   */\n      and\n        /* \"#utility.yul\":7577:7701   */\n      iszero\n      tag_224\n      jumpi\n        /* \"#utility.yul\":7681:7699   */\n      tag_225\n      tag_211\n      jump\t// in\n    tag_225:\n        /* \"#utility.yul\":7577:7701   */\n    tag_224:\n        /* \"#utility.yul\":7726:7727   */\n      dup3\n        /* \"#utility.yul\":7723:7724   */\n      dup3\n        /* \"#utility.yul\":7719:7728   */\n      sub\n        /* \"#utility.yul\":7711:7728   */\n      swap1\n      pop\n        /* \"#utility.yul\":7207:7734   */\n      swap3\n      swap2\n      pop\n      pop\n      jump\t// out\n        /* \"#utility.yul\":7740:7931   */\n    tag_97:\n        /* \"#utility.yul\":7780:7784   */\n      0x00\n        /* \"#utility.yul\":7800:7820   */\n      tag_227\n        /* \"#utility.yul\":7818:7819   */\n      dup3\n        /* \"#utility.yul\":7800:7820   */\n      tag_189\n      jump\t// in\n    tag_227:\n        /* \"#utility.yul\":7795:7820   */\n      swap2\n      pop\n        /* \"#utility.yul\":7834:7854   */\n      tag_228\n        /* \"#utility.yul\":7852:7853   */\n      dup4\n        /* \"#utility.yul\":7834:7854   */\n      tag_189\n      jump\t// in\n    tag_228:\n        /* \"#utility.yul\":7829:7854   */\n      swap3\n      pop\n        /* \"#utility.yul\":7873:7874   */\n      dup3\n        /* \"#utility.yul\":7870:7871   */\n      dup3\n        /* \"#utility.yul\":7867:7875   */\n      lt\n        /* \"#utility.yul\":7864:7898   */\n      iszero\n      tag_229\n      jumpi\n        /* \"#utility.yul\":7878:7896   */\n      tag_230\n      tag_211\n      jump\t// in\n    tag_230:\n        /* \"#utility.yul\":7864:7898   */\n    tag_229:\n        /* \"#utility.yul\":7923:7924   */\n      dup3\n        /* \"#utility.yul\":7920:7921   */\n      dup3\n        /* \"#utility.yul\":7916:7925   */\n      sub\n        /* \"#utility.yul\":7908:7925   */\n      swap1\n      pop\n        /* \"#utility.yul\":7740:7931   */\n      swap3\n      swap2\n      pop\n      pop\n      jump\t// out\n        /* \"#utility.yul\":7937:8033   */\n    tag_231:\n        /* \"#utility.yul\":7974:7981   */\n      0x00\n        /* \"#utility.yul\":8003:8027   */\n      tag_233\n        /* \"#utility.yul\":8021:8026   */\n      dup3\n        /* \"#utility.yul\":8003:8027   */\n      tag_234\n      jump\t// in\n    tag_233:\n        /* \"#utility.yul\":7992:8027   */\n      swap1\n      pop\n        /* \"#utility.yul\":7937:8033   */\n      swap2\n      swap1\n      pop\n      jump\t// out\n        /* \"#utility.yul\":8039:8129   */\n    tag_161:\n        /* \"#utility.yul\":8073:8080   */\n      0x00\n        /* \"#utility.yul\":8116:8121   */\n      dup2\n        /* \"#utility.yul\":8109:8122   */\n      iszero\n        /* \"#utility.yul\":8102:8123   */\n      iszero\n        /* \"#utility.yul\":8091:8123   */\n      swap1\n      pop\n        /* \"#utility.yul\":8039:8129   */\n      swap2\n      swap1\n      pop\n      jump\t// out\n        /* \"#utility.yul\":8135:8211   */\n    tag_165:\n        /* \"#utility.yul\":8171:8178   */\n      0x00\n        /* \"#utility.yul\":8200:8205   */\n      dup2\n        /* \"#utility.yul\":8189:8205   */\n      swap1\n      pop\n        /* \"#utility.yul\":8135:8211   */\n      swap2\n      swap1\n      pop\n      jump\t// out\n        /* \"#utility.yul\":8217:8343   */\n    tag_234:\n        /* \"#utility.yul\":8254:8261   */\n      0x00\n        /* \"#utility.yul\":8294:8336   */\n      0xffffffffffffffffffffffffffffffffffffffff\n        /* \"#utility.yul\":8287:8292   */\n      dup3\n        /* \"#utility.yul\":8283:8337   */\n      and\n        /* \"#utility.yul\":8272:8337   */\n      swap1\n      pop\n        /* \"#utility.yul\":8217:8343   */\n      swap2\n      swap1\n      pop\n      jump\t// out\n        /* \"#utility.yul\":8349:8426   */\n    tag_189:\n        /* \"#utility.yul\":8386:8393   */\n      0x00\n        /* \"#utility.yul\":8415:8420   */\n      dup2\n        /* \"#utility.yul\":8404:8420   */\n      swap1\n      pop\n        /* \"#utility.yul\":8349:8426   */\n      swap2\n      swap1\n      pop\n      jump\t// out\n        /* \"#utility.yul\":8432:8739   */\n    tag_173:\n        /* \"#utility.yul\":8500:8501   */\n      0x00\n        /* \"#utility.yul\":8510:8623   */\n    tag_240:\n        /* \"#utility.yul\":8524:8530   */\n      dup4\n        /* \"#utility.yul\":8521:8522   */\n      dup2\n        /* \"#utility.yul\":8518:8531   */\n      lt\n        /* \"#utility.yul\":8510:8623   */\n      iszero\n      tag_242\n      jumpi\n        /* \"#utility.yul\":8609:8610   */\n      dup1\n        /* \"#utility.yul\":8604:8607   */\n      dup3\n        /* \"#utility.yul\":8600:8611   */\n      add\n        /* \"#utility.yul\":8594:8612   */\n      mload\n        /* \"#utility.yul\":8590:8591   */\n      dup2\n        /* \"#utility.yul\":8585:8588   */\n      dup5\n        /* \"#utility.yul\":8581:8592   */\n      add\n        /* \"#utility.yul\":8574:8613   */\n      mstore\n        /* \"#utility.yul\":8546:8548   */\n      0x20\n        /* \"#utility.yul\":8543:8544   */\n      dup2\n        /* \"#utility.yul\":8539:8549   */\n      add\n        /* \"#utility.yul\":8534:8549   */\n      swap1\n      pop\n        /* \"#utility.yul\":8510:8623   */\n      jump(tag_240)\n    tag_242:\n        /* \"#utility.yul\":8641:8647   */\n      dup4\n        /* \"#utility.yul\":8638:8639   */\n      dup2\n        /* \"#utility.yul\":8635:8648   */\n      gt\n        /* \"#utility.yul\":8632:8733   */\n      iszero\n      tag_243\n      jumpi\n        /* \"#utility.yul\":8721:8722   */\n      0x00\n        /* \"#utility.yul\":8712:8718   */\n      dup5\n        /* \"#utility.yul\":8707:8710   */\n      dup5\n        /* \"#utility.yul\":8703:8719   */\n      add\n        /* \"#utility.yul\":8696:8723   */\n      mstore\n        /* \"#utility.yul\":8632:8733   */\n    tag_243:\n        /* \"#utility.yul\":8481:8739   */\n      pop\n        /* \"#utility.yul\":8432:8739   */\n      pop\n      pop\n      pop\n      jump\t// out\n        /* \"#utility.yul\":8745:9065   */\n    tag_78:\n        /* \"#utility.yul\":8789:8795   */\n      0x00\n        /* \"#utility.yul\":8826:8827   */\n      0x02\n        /* \"#utility.yul\":8820:8824   */\n      dup3\n        /* \"#utility.yul\":8816:8828   */\n      div\n        /* \"#utility.yul\":8806:8828   */\n      swap1\n      pop\n        /* \"#utility.yul\":8873:8874   */\n      0x01\n        /* \"#utility.yul\":8867:8871   */\n      dup3\n        /* \"#utility.yul\":8863:8875   */\n      and\n        /* \"#utility.yul\":8894:8912   */\n      dup1\n        /* \"#utility.yul\":8884:8965   */\n      tag_245\n      jumpi\n        /* \"#utility.yul\":8950:8954   */\n      0x7f\n        /* \"#utility.yul\":8942:8948   */\n      dup3\n        /* \"#utility.yul\":8938:8955   */\n      and\n        /* \"#utility.yul\":8928:8955   */\n      swap2\n      pop\n        /* \"#utility.yul\":8884:8965   */\n    tag_245:\n        /* \"#utility.yul\":9012:9014   */\n      0x20\n        /* \"#utility.yul\":9004:9010   */\n      dup3\n        /* \"#utility.yul\":9001:9015   */\n      lt\n        /* \"#utility.yul\":8981:8999   */\n      dup2\n        /* \"#utility.yul\":8978:9016   */\n      eq\n        /* \"#utility.yul\":8975:9059   */\n      iszero\n      tag_246\n      jumpi\n        /* \"#utility.yul\":9031:9049   */\n      tag_247\n      tag_248\n      jump\t// in\n    tag_247:\n        /* \"#utility.yul\":8975:9059   */\n    tag_246:\n        /* \"#utility.yul\":8796:9065   */\n      pop\n        /* \"#utility.yul\":8745:9065   */\n      swap2\n      swap1\n      pop\n      jump\t// out\n        /* \"#utility.yul\":9071:9251   */\n    tag_211:\n        /* \"#utility.yul\":9119:9196   */\n      0x4e487b7100000000000000000000000000000000000000000000000000000000\n        /* \"#utility.yul\":9116:9117   */\n      0x00\n        /* \"#utility.yul\":9109:9197   */\n      mstore\n        /* \"#utility.yul\":9216:9220   */\n      0x11\n        /* \"#utility.yul\":9213:9214   */\n      0x04\n        /* \"#utility.yul\":9206:9221   */\n      mstore\n        /* \"#utility.yul\":9240:9244   */\n      0x24\n        /* \"#utility.yul\":9237:9238   */\n      0x00\n        /* \"#utility.yul\":9230:9245   */\n      revert\n        /* \"#utility.yul\":9257:9437   */\n    tag_248:\n        /* \"#utility.yul\":9305:9382   */\n      0x4e487b7100000000000000000000000000000000000000000000000000000000\n        /* \"#utility.yul\":9302:9303   */\n      0x00\n        /* \"#utility.yul\":9295:9383   */\n      mstore\n        /* \"#utility.yul\":9402:9406   */\n      0x22\n        /* \"#utility.yul\":9399:9400   */\n      0x04\n        /* \"#utility.yul\":9392:9407   */\n      mstore\n        /* \"#utility.yul\":9426:9430   */\n      0x24\n        /* \"#utility.yul\":9423:9424   */\n      0x00\n        /* \"#utility.yul\":9416:9431   */\n      revert\n        /* \"#utility.yul\":9566:9683   */\n    tag_136:\n        /* \"#utility.yul\":9675:9676   */\n      0x00\n        /* \"#utility.yul\":9672:9673   */\n      dup1\n        /* \"#utility.yul\":9665:9677   */\n      revert\n        /* \"#utility.yul\":9689:9791   */\n    tag_175:\n        /* \"#utility.yul\":9730:9736   */\n      0x00\n        /* \"#utility.yul\":9781:9783   */\n      0x1f\n        /* \"#utility.yul\":9777:9784   */\n      not\n        /* \"#utility.yul\":9772:9774   */\n      0x1f\n        /* \"#utility.yul\":9765:9770   */\n      dup4\n        /* \"#utility.yul\":9761:9775   */\n      add\n        /* \"#utility.yul\":9757:9785   */\n      and\n        /* \"#utility.yul\":9747:9785   */\n      swap1\n      pop\n        /* \"#utility.yul\":9689:9791   */\n      swap2\n      swap1\n      pop\n      jump\t// out\n        /* \"#utility.yul\":9797:9962   */\n    tag_180:\n        /* \"#utility.yul\":9937:9954   */\n      0x62616c616e636520746f6f206c6f770000000000000000000000000000000000\n        /* \"#utility.yul\":9933:9934   */\n      0x00\n        /* \"#utility.yul\":9925:9931   */\n      dup3\n        /* \"#utility.yul\":9921:9935   */\n      add\n        /* \"#utility.yul\":9914:9955   */\n      mstore\n        /* \"#utility.yul\":9797:9962   */\n      pop\n      jump\t// out\n        /* \"#utility.yul\":9968:10135   */\n    tag_185:\n        /* \"#utility.yul\":10108:10127   */\n      0x616c6c6f77616e636520746f6f206c6f77000000000000000000000000000000\n        /* \"#utility.yul\":10104:10105   */\n      0x00\n        /* \"#utility.yul\":10096:10102   */\n      dup3\n        /* \"#utility.yul\":10092:10106   */\n      add\n        /* \"#utility.yul\":10085:10128   */\n      mstore\n        /* \"#utility.yul\":9968:10135   */\n      pop\n      jump\t// out\n        /* \"#utility.yul\":10141:10263   */\n    tag_124:\n        /* \"#utility.yul\":10214:10238   */\n      tag_258\n        /* \"#utility.yul\":10232:10237   */\n      dup2\n        /* \"#utility.yul\":10214:10238   */\n      tag_231\n      jump\t// in\n    tag_258:\n        /* \"#utility.yul\":10207:10212   */\n      dup2\n        /* \"#utility.yul\":10204:10239   */\n      eq\n        /* \"#utility.yul\":10194:10257   */\n      tag_259\n      jumpi\n        /* \"#utility.yul\":10253:10254   */\n      0x00\n        /* \"#utility.yul\":10250:10251   */\n      dup1\n        /* \"#utility.yul\":10243:10255   */\n      revert\n        /* \"#utility.yul\":10194:10257   */\n    tag_259:\n        /* \"#utility.yul\":10141:10263   */\n      pop\n      jump\t// out\n        /* \"#utility.yul\":10269:10389   */\n    tag_128:\n        /* \"#utility.yul\":10341:10364   */\n      tag_261\n        /* \"#utility.yul\":10358:10363   */\n      dup2\n        /* \"#utility.yul\":10341:10364   */\n      tag_165\n      jump\t// in\n    tag_261:\n        /* \"#utility.yul\":10334:10339   */\n      dup2\n        /* \"#utility.yul\":10331:10365   */\n      eq\n        /* \"#utility.yul\":10321:10383   */\n      tag_262\n      jumpi\n        /* \"#utility.yul\":10379:10380   */\n      0x00\n        /* \"#utility.yul\":10376:10377   */\n      dup1\n        /* \"#utility.yul\":10369:10381   */\n      revert\n        /* \"#utility.yul\":10321:10383   */\n    tag_262:\n        /* \"#utility.yul\":10269:10389   */\n      pop\n      jump\t// out\n        /* \"#utility.yul\":10395:10517   */\n    tag_132:\n        /* \"#utility.yul\":10468:10492   */\n      tag_264\n        /* \"#utility.yul\":10486:10491   */\n      dup2\n        /* \"#utility.yul\":10468:10492   */\n      tag_189\n      jump\t// in\n    tag_264:\n        /* \"#utility.yul\":10461:10466   */\n      dup2\n        /* \"#utility.yul\":10458:10493   */\n      eq\n        /* \"#utility.yul\":10448:10511   */\n      tag_265\n      jumpi\n        /* \"#utility.yul\":10507:10508   */\n      0x00\n        /* \"#utility.yul\":10504:10505   */\n      dup1\n        /* \"#utility.yul\":10497:10509   */\n      revert\n        /* \"#utility.yul\":10448:10511   */\n    tag_265:\n        /* \"#utility.yul\":10395:10517   */\n      pop\n      jump\t// out\n\n    auxdata: 0xa2646970667358221220530c0f843502223fb0a2e7f3d825766c39510a3eb23ec0ed65b75d1c9d6987a664736f6c63430008070033\n}\n",
				"bytecode": {
					"linkReferences": {},
					"object": "60806040526c7e37be2022c0914b26800000006002556040518060400160405280600b81526020017f4b414d4520544f4b454e73000000000000000000000000000000000000000000815250600390805190602001906200006292919062000117565b506040518060400160405280600381526020017f4b4154000000000000000000000000000000000000000000000000000000000081525060049080519060200190620000b092919062000117565b506012600555348015620000c357600080fd5b506002546000803373ffffffffffffffffffffffffffffffffffffffff1673ffffffffffffffffffffffffffffffffffffffff1681526020019081526020016000208190555060006006819055506200022c565b8280546200012590620001c7565b90600052602060002090601f01602090048101928262000149576000855562000195565b82601f106200016457805160ff191683800117855562000195565b8280016001018555821562000195579182015b828111156200019457825182559160200191906001019062000177565b5b509050620001a49190620001a8565b5090565b5b80821115620001c3576000816000905550600101620001a9565b5090565b60006002820490506001821680620001e057607f821691505b60208210811415620001f757620001f6620001fd565b5b50919050565b7f4e487b7100000000000000000000000000000000000000000000000000000000600052602260045260246000fd5b61100d806200023c6000396000f3fe608060405234801561001057600080fd5b50600436106100ea5760003560e01c806370a082311161008c578063a9059cbb11610066578063a9059cbb14610261578063b69ef8a814610291578063dd62ed3e146102af578063e51ed0a0146102df576100ea565b806370a08231146101f75780637c52caa31461022757806395d89b4114610243576100ea565b806318160ddd116100c857806318160ddd1461015b57806323b872dd1461017957806327e235e3146101a9578063313ce567146101d9576100ea565b806306fdde03146100ef578063095ea7b31461010d57806312065fe01461013d575b600080fd5b6100f76102fb565b6040516101049190610bca565b60405180910390f35b61012760048036038101906101229190610a7b565b610389565b6040516101349190610b94565b60405180910390f35b61014561047b565b6040516101529190610baf565b60405180910390f35b610163610485565b6040516101709190610c2c565b60405180910390f35b610193600480360381019061018e9190610a28565b61048b565b6040516101a09190610b94565b60405180910390f35b6101c360048036038101906101be91906109bb565b6106b1565b6040516101d09190610c2c565b60405180910390f35b6101e16106c9565b6040516101ee9190610c2c565b60405180910390f35b610211600480360381019061020c91906109bb565b6106cf565b60405161021e9190610c2c565b60405180910390f35b610241600480360381019061023c9190610abb565b610717565b005b61024b610746565b6040516102589190610bca565b60405180910390f35b61027b60048036038101906102769190610a7b565b6107d4565b6040516102889190610b94565b60405180910390f35b61029961093a565b6040516102a69190610baf565b60405180910390f35b6102c960048036038101906102c491906109e8565b610940565b6040516102d69190610c2c565b60405180910390f35b6102f960048036038101906102f49190610abb565b610965565b005b6003805461030890610e9a565b80601f016020809104026020016040519081016040528092919081815260200182805461033490610e9a565b80156103815780601f1061035657610100808354040283529160200191610381565b820191906000526020600020905b81548152906001019060200180831161036457829003601f168201915b505050505081565b600081600160003373ffffffffffffffffffffffffffffffffffffffff1673ffffffffffffffffffffffffffffffffffffffff16815260200190815260200160002060008573ffffffffffffffffffffffffffffffffffffffff1673ffffffffffffffffffffffffffffffffffffffff168152602001908152602001600020819055508273ffffffffffffffffffffffffffffffffffffffff163373ffffffffffffffffffffffffffffffffffffffff167f8c5be1e5ebec7d5bd14f71427d1e84f3dd0314c0f7b2291e5b200ac8c7c3b925846040516104699190610c2c565b60405180910390a36001905092915050565b6000600654905090565b60025481565b600081610497856106cf565b10156104d8576040517f08c379a00000000000000000000000000000000000000000000000000000000081526004016104cf90610bec565b60405180910390fd5b81600160008673ffffffffffffffffffffffffffffffffffffffff1673ffffffffffffffffffffffffffffffffffffffff16815260200190815260200160002060003373ffffffffffffffffffffffffffffffffffffffff1673ffffffffffffffffffffffffffffffffffffffff168152602001908152602001600020541015610597576040517f08c379a000000000000000000000000000000000000000000000000000000000815260040161058e90610c0c565b60405180910390fd5b816000808573ffffffffffffffffffffffffffffffffffffffff1673ffffffffffffffffffffffffffffffffffffffff16815260200190815260200160002060008282546105e59190610cf7565b92505081905550816000808673ffffffffffffffffffffffffffffffffffffffff1673ffffffffffffffffffffffffffffffffffffffff168152602001908152602001600020600082825461063a9190610de1565b925050819055508273ffffffffffffffffffffffffffffffffffffffff168473ffffffffffffffffffffffffffffffffffffffff167fddf252ad1be2c89b69c2b068fc378daa952ba7f163c4a11628f55a4df523b3ef8460405161069e9190610c2c565b60405180910390a3600190509392505050565b60006020528060005260406000206000915090505481565b60055481565b60008060008373ffffffffffffffffffffffffffffffffffffffff1673ffffffffffffffffffffffffffffffffffffffff168152602001908152602001600020549050919050565b806005600a6006546107299190610d4d565b6107339190610d4d565b61073d9190610d4d565b60068190555050565b6004805461075390610e9a565b80601f016020809104026020016040519081016040528092919081815260200182805461077f90610e9a565b80156107cc5780601f106107a1576101008083540402835291602001916107cc565b820191906000526020600020905b8154815290600101906020018083116107af57829003601f168201915b505050505081565b6000816107e0336106cf565b1015610821576040517f08c379a000000000000000000000000000000000000000000000000000000000815260040161081890610bec565b60405180910390fd5b816000808573ffffffffffffffffffffffffffffffffffffffff1673ffffffffffffffffffffffffffffffffffffffff168152602001908152602001600020600082825461086f9190610cf7565b92505081905550816000803373ffffffffffffffffffffffffffffffffffffffff1673ffffffffffffffffffffffffffffffffffffffff16815260200190815260200160002060008282546108c49190610de1565b925050819055508273ffffffffffffffffffffffffffffffffffffffff163373ffffffffffffffffffffffffffffffffffffffff167fddf252ad1be2c89b69c2b068fc378daa952ba7f163c4a11628f55a4df523b3ef846040516109289190610c2c565b60405180910390a36001905092915050565b60065481565b6001602052816000526040600020602052806000526040600020600091509150505481565b806006546109739190610c63565b60068190555050565b60008135905061098b81610f92565b92915050565b6000813590506109a081610fa9565b92915050565b6000813590506109b581610fc0565b92915050565b6000602082840312156109d1576109d0610f2a565b5b60006109df8482850161097c565b91505092915050565b600080604083850312156109ff576109fe610f2a565b5b6000610a0d8582860161097c565b9250506020610a1e8582860161097c565b9150509250929050565b600080600060608486031215610a4157610a40610f2a565b5b6000610a4f8682870161097c565b9350506020610a608682870161097c565b9250506040610a71868287016109a6565b9150509250925092565b60008060408385031215610a9257610a91610f2a565b5b6000610aa08582860161097c565b9250506020610ab1858286016109a6565b9150509250929050565b600060208284031215610ad157610ad0610f2a565b5b6000610adf84828501610991565b91505092915050565b610af181610e27565b82525050565b610b0081610e33565b82525050565b6000610b1182610c47565b610b1b8185610c52565b9350610b2b818560208601610e67565b610b3481610f2f565b840191505092915050565b6000610b4c600f83610c52565b9150610b5782610f40565b602082019050919050565b6000610b6f601183610c52565b9150610b7a82610f69565b602082019050919050565b610b8e81610e5d565b82525050565b6000602082019050610ba96000830184610ae8565b92915050565b6000602082019050610bc46000830184610af7565b92915050565b60006020820190508181036000830152610be48184610b06565b905092915050565b60006020820190508181036000830152610c0581610b3f565b9050919050565b60006020820190508181036000830152610c2581610b62565b9050919050565b6000602082019050610c416000830184610b85565b92915050565b600081519050919050565b600082825260208201905092915050565b6000610c6e82610e33565b9150610c7983610e33565b9250817f7fffffffffffffffffffffffffffffffffffffffffffffffffffffffffffffff03831360008312151615610cb457610cb3610ecc565b5b817f8000000000000000000000000000000000000000000000000000000000000000038312600083121615610cec57610ceb610ecc565b5b828201905092915050565b6000610d0282610e5d565b9150610d0d83610e5d565b9250827fffffffffffffffffffffffffffffffffffffffffffffffffffffffffffffffff03821115610d4257610d41610ecc565b5b828201905092915050565b6000610d5882610e33565b9150610d6383610e33565b9250827f800000000000000000000000000000000000000000000000000000000000000001821260008412151615610d9e57610d9d610ecc565b5b827f7fffffffffffffffffffffffffffffffffffffffffffffffffffffffffffffff018213600084121615610dd657610dd5610ecc565b5b828203905092915050565b6000610dec82610e5d565b9150610df783610e5d565b925082821015610e0a57610e09610ecc565b5b828203905092915050565b6000610e2082610e3d565b9050919050565b60008115159050919050565b6000819050919050565b600073ffffffffffffffffffffffffffffffffffffffff82169050919050565b6000819050919050565b60005b83811015610e85578082015181840152602081019050610e6a565b83811115610e94576000848401525b50505050565b60006002820490506001821680610eb257607f821691505b60208210811415610ec657610ec5610efb565b5b50919050565b7f4e487b7100000000000000000000000000000000000000000000000000000000600052601160045260246000fd5b7f4e487b7100000000000000000000000000000000000000000000000000000000600052602260045260246000fd5b600080fd5b6000601f19601f8301169050919050565b7f62616c616e636520746f6f206c6f770000000000000000000000000000000000600082015250565b7f616c6c6f77616e636520746f6f206c6f77000000000000000000000000000000600082015250565b610f9b81610e15565b8114610fa657600080fd5b50565b610fb281610e33565b8114610fbd57600080fd5b50565b610fc981610e5d565b8114610fd457600080fd5b5056fea2646970667358221220530c0f843502223fb0a2e7f3d825766c39510a3eb23ec0ed65b75d1c9d6987a664736f6c63430008070033",
					"opcodes": "PUSH1 0x80 PUSH1 0x40 MSTORE PUSH13 0x7E37BE2022C0914B2680000000 PUSH1 0x2 SSTORE PUSH1 0x40 MLOAD DUP1 PUSH1 0x40 ADD PUSH1 0x40 MSTORE DUP1 PUSH1 0xB DUP2 MSTORE PUSH1 0x20 ADD PUSH32 0x4B414D4520544F4B454E73000000000000000000000000000000000000000000 DUP2 MSTORE POP PUSH1 0x3 SWAP1 DUP1 MLOAD SWAP1 PUSH1 0x20 ADD SWAP1 PUSH3 0x62 SWAP3 SWAP2 SWAP1 PUSH3 0x117 JUMP JUMPDEST POP PUSH1 0x40 MLOAD DUP1 PUSH1 0x40 ADD PUSH1 0x40 MSTORE DUP1 PUSH1 0x3 DUP2 MSTORE PUSH1 0x20 ADD PUSH32 0x4B41540000000000000000000000000000000000000000000000000000000000 DUP2 MSTORE POP PUSH1 0x4 SWAP1 DUP1 MLOAD SWAP1 PUSH1 0x20 ADD SWAP1 PUSH3 0xB0 SWAP3 SWAP2 SWAP1 PUSH3 0x117 JUMP JUMPDEST POP PUSH1 0x12 PUSH1 0x5 SSTORE CALLVALUE DUP1 ISZERO PUSH3 0xC3 JUMPI PUSH1 0x0 DUP1 REVERT JUMPDEST POP PUSH1 0x2 SLOAD PUSH1 0x0 DUP1 CALLER PUSH20 0xFFFFFFFFFFFFFFFFFFFFFFFFFFFFFFFFFFFFFFFF AND PUSH20 0xFFFFFFFFFFFFFFFFFFFFFFFFFFFFFFFFFFFFFFFF AND DUP2 MSTORE PUSH1 0x20 ADD SWAP1 DUP2 MSTORE PUSH1 0x20 ADD PUSH1 0x0 KECCAK256 DUP2 SWAP1 SSTORE POP PUSH1 0x0 PUSH1 0x6 DUP2 SWAP1 SSTORE POP PUSH3 0x22C JUMP JUMPDEST DUP3 DUP1 SLOAD PUSH3 0x125 SWAP1 PUSH3 0x1C7 JUMP JUMPDEST SWAP1 PUSH1 0x0 MSTORE PUSH1 0x20 PUSH1 0x0 KECCAK256 SWAP1 PUSH1 0x1F ADD PUSH1 0x20 SWAP1 DIV DUP2 ADD SWAP3 DUP3 PUSH3 0x149 JUMPI PUSH1 0x0 DUP6 SSTORE PUSH3 0x195 JUMP JUMPDEST DUP3 PUSH1 0x1F LT PUSH3 0x164 JUMPI DUP1 MLOAD PUSH1 0xFF NOT AND DUP4 DUP1 ADD OR DUP6 SSTORE PUSH3 0x195 JUMP JUMPDEST DUP3 DUP1 ADD PUSH1 0x1 ADD DUP6 SSTORE DUP3 ISZERO PUSH3 0x195 JUMPI SWAP2 DUP3 ADD JUMPDEST DUP3 DUP2 GT ISZERO PUSH3 0x194 JUMPI DUP3 MLOAD DUP3 SSTORE SWAP2 PUSH1 0x20 ADD SWAP2 SWAP1 PUSH1 0x1 ADD SWAP1 PUSH3 0x177 JUMP JUMPDEST JUMPDEST POP SWAP1 POP PUSH3 0x1A4 SWAP2 SWAP1 PUSH3 0x1A8 JUMP JUMPDEST POP SWAP1 JUMP JUMPDEST JUMPDEST DUP1 DUP3 GT ISZERO PUSH3 0x1C3 JUMPI PUSH1 0x0 DUP2 PUSH1 0x0 SWAP1 SSTORE POP PUSH1 0x1 ADD PUSH3 0x1A9 JUMP JUMPDEST POP SWAP1 JUMP JUMPDEST PUSH1 0x0 PUSH1 0x2 DUP3 DIV SWAP1 POP PUSH1 0x1 DUP3 AND DUP1 PUSH3 0x1E0 JUMPI PUSH1 0x7F DUP3 AND SWAP2 POP JUMPDEST PUSH1 0x20 DUP3 LT DUP2 EQ ISZERO PUSH3 0x1F7 JUMPI PUSH3 0x1F6 PUSH3 0x1FD JUMP JUMPDEST JUMPDEST POP SWAP2 SWAP1 POP JUMP JUMPDEST PUSH32 0x4E487B7100000000000000000000000000000000000000000000000000000000 PUSH1 0x0 MSTORE PUSH1 0x22 PUSH1 0x4 MSTORE PUSH1 0x24 PUSH1 0x0 REVERT JUMPDEST PUSH2 0x100D DUP1 PUSH3 0x23C PUSH1 0x0 CODECOPY PUSH1 0x0 RETURN INVALID PUSH1 0x80 PUSH1 0x40 MSTORE CALLVALUE DUP1 ISZERO PUSH2 0x10 JUMPI PUSH1 0x0 DUP1 REVERT JUMPDEST POP PUSH1 0x4 CALLDATASIZE LT PUSH2 0xEA JUMPI PUSH1 0x0 CALLDATALOAD PUSH1 0xE0 SHR DUP1 PUSH4 0x70A08231 GT PUSH2 0x8C JUMPI DUP1 PUSH4 0xA9059CBB GT PUSH2 0x66 JUMPI DUP1 PUSH4 0xA9059CBB EQ PUSH2 0x261 JUMPI DUP1 PUSH4 0xB69EF8A8 EQ PUSH2 0x291 JUMPI DUP1 PUSH4 0xDD62ED3E EQ PUSH2 0x2AF JUMPI DUP1 PUSH4 0xE51ED0A0 EQ PUSH2 0x2DF JUMPI PUSH2 0xEA JUMP JUMPDEST DUP1 PUSH4 0x70A08231 EQ PUSH2 0x1F7 JUMPI DUP1 PUSH4 0x7C52CAA3 EQ PUSH2 0x227 JUMPI DUP1 PUSH4 0x95D89B41 EQ PUSH2 0x243 JUMPI PUSH2 0xEA JUMP JUMPDEST DUP1 PUSH4 0x18160DDD GT PUSH2 0xC8 JUMPI DUP1 PUSH4 0x18160DDD EQ PUSH2 0x15B JUMPI DUP1 PUSH4 0x23B872DD EQ PUSH2 0x179 JUMPI DUP1 PUSH4 0x27E235E3 EQ PUSH2 0x1A9 JUMPI DUP1 PUSH4 0x313CE567 EQ PUSH2 0x1D9 JUMPI PUSH2 0xEA JUMP JUMPDEST DUP1 PUSH4 0x6FDDE03 EQ PUSH2 0xEF JUMPI DUP1 PUSH4 0x95EA7B3 EQ PUSH2 0x10D JUMPI DUP1 PUSH4 0x12065FE0 EQ PUSH2 0x13D JUMPI JUMPDEST PUSH1 0x0 DUP1 REVERT JUMPDEST PUSH2 0xF7 PUSH2 0x2FB JUMP JUMPDEST PUSH1 0x40 MLOAD PUSH2 0x104 SWAP2 SWAP1 PUSH2 0xBCA JUMP JUMPDEST PUSH1 0x40 MLOAD DUP1 SWAP2 SUB SWAP1 RETURN JUMPDEST PUSH2 0x127 PUSH1 0x4 DUP1 CALLDATASIZE SUB DUP2 ADD SWAP1 PUSH2 0x122 SWAP2 SWAP1 PUSH2 0xA7B JUMP JUMPDEST PUSH2 0x389 JUMP JUMPDEST PUSH1 0x40 MLOAD PUSH2 0x134 SWAP2 SWAP1 PUSH2 0xB94 JUMP JUMPDEST PUSH1 0x40 MLOAD DUP1 SWAP2 SUB SWAP1 RETURN JUMPDEST PUSH2 0x145 PUSH2 0x47B JUMP JUMPDEST PUSH1 0x40 MLOAD PUSH2 0x152 SWAP2 SWAP1 PUSH2 0xBAF JUMP JUMPDEST PUSH1 0x40 MLOAD DUP1 SWAP2 SUB SWAP1 RETURN JUMPDEST PUSH2 0x163 PUSH2 0x485 JUMP JUMPDEST PUSH1 0x40 MLOAD PUSH2 0x170 SWAP2 SWAP1 PUSH2 0xC2C JUMP JUMPDEST PUSH1 0x40 MLOAD DUP1 SWAP2 SUB SWAP1 RETURN JUMPDEST PUSH2 0x193 PUSH1 0x4 DUP1 CALLDATASIZE SUB DUP2 ADD SWAP1 PUSH2 0x18E SWAP2 SWAP1 PUSH2 0xA28 JUMP JUMPDEST PUSH2 0x48B JUMP JUMPDEST PUSH1 0x40 MLOAD PUSH2 0x1A0 SWAP2 SWAP1 PUSH2 0xB94 JUMP JUMPDEST PUSH1 0x40 MLOAD DUP1 SWAP2 SUB SWAP1 RETURN JUMPDEST PUSH2 0x1C3 PUSH1 0x4 DUP1 CALLDATASIZE SUB DUP2 ADD SWAP1 PUSH2 0x1BE SWAP2 SWAP1 PUSH2 0x9BB JUMP JUMPDEST PUSH2 0x6B1 JUMP JUMPDEST PUSH1 0x40 MLOAD PUSH2 0x1D0 SWAP2 SWAP1 PUSH2 0xC2C JUMP JUMPDEST PUSH1 0x40 MLOAD DUP1 SWAP2 SUB SWAP1 RETURN JUMPDEST PUSH2 0x1E1 PUSH2 0x6C9 JUMP JUMPDEST PUSH1 0x40 MLOAD PUSH2 0x1EE SWAP2 SWAP1 PUSH2 0xC2C JUMP JUMPDEST PUSH1 0x40 MLOAD DUP1 SWAP2 SUB SWAP1 RETURN JUMPDEST PUSH2 0x211 PUSH1 0x4 DUP1 CALLDATASIZE SUB DUP2 ADD SWAP1 PUSH2 0x20C SWAP2 SWAP1 PUSH2 0x9BB JUMP JUMPDEST PUSH2 0x6CF JUMP JUMPDEST PUSH1 0x40 MLOAD PUSH2 0x21E SWAP2 SWAP1 PUSH2 0xC2C JUMP JUMPDEST PUSH1 0x40 MLOAD DUP1 SWAP2 SUB SWAP1 RETURN JUMPDEST PUSH2 0x241 PUSH1 0x4 DUP1 CALLDATASIZE SUB DUP2 ADD SWAP1 PUSH2 0x23C SWAP2 SWAP1 PUSH2 0xABB JUMP JUMPDEST PUSH2 0x717 JUMP JUMPDEST STOP JUMPDEST PUSH2 0x24B PUSH2 0x746 JUMP JUMPDEST PUSH1 0x40 MLOAD PUSH2 0x258 SWAP2 SWAP1 PUSH2 0xBCA JUMP JUMPDEST PUSH1 0x40 MLOAD DUP1 SWAP2 SUB SWAP1 RETURN JUMPDEST PUSH2 0x27B PUSH1 0x4 DUP1 CALLDATASIZE SUB DUP2 ADD SWAP1 PUSH2 0x276 SWAP2 SWAP1 PUSH2 0xA7B JUMP JUMPDEST PUSH2 0x7D4 JUMP JUMPDEST PUSH1 0x40 MLOAD PUSH2 0x288 SWAP2 SWAP1 PUSH2 0xB94 JUMP JUMPDEST PUSH1 0x40 MLOAD DUP1 SWAP2 SUB SWAP1 RETURN JUMPDEST PUSH2 0x299 PUSH2 0x93A JUMP JUMPDEST PUSH1 0x40 MLOAD PUSH2 0x2A6 SWAP2 SWAP1 PUSH2 0xBAF JUMP JUMPDEST PUSH1 0x40 MLOAD DUP1 SWAP2 SUB SWAP1 RETURN JUMPDEST PUSH2 0x2C9 PUSH1 0x4 DUP1 CALLDATASIZE SUB DUP2 ADD SWAP1 PUSH2 0x2C4 SWAP2 SWAP1 PUSH2 0x9E8 JUMP JUMPDEST PUSH2 0x940 JUMP JUMPDEST PUSH1 0x40 MLOAD PUSH2 0x2D6 SWAP2 SWAP1 PUSH2 0xC2C JUMP JUMPDEST PUSH1 0x40 MLOAD DUP1 SWAP2 SUB SWAP1 RETURN JUMPDEST PUSH2 0x2F9 PUSH1 0x4 DUP1 CALLDATASIZE SUB DUP2 ADD SWAP1 PUSH2 0x2F4 SWAP2 SWAP1 PUSH2 0xABB JUMP JUMPDEST PUSH2 0x965 JUMP JUMPDEST STOP JUMPDEST PUSH1 0x3 DUP1 SLOAD PUSH2 0x308 SWAP1 PUSH2 0xE9A JUMP JUMPDEST DUP1 PUSH1 0x1F ADD PUSH1 0x20 DUP1 SWAP2 DIV MUL PUSH1 0x20 ADD PUSH1 0x40 MLOAD SWAP1 DUP2 ADD PUSH1 0x40 MSTORE DUP1 SWAP3 SWAP2 SWAP1 DUP2 DUP2 MSTORE PUSH1 0x20 ADD DUP3 DUP1 SLOAD PUSH2 0x334 SWAP1 PUSH2 0xE9A JUMP JUMPDEST DUP1 ISZERO PUSH2 0x381 JUMPI DUP1 PUSH1 0x1F LT PUSH2 0x356 JUMPI PUSH2 0x100 DUP1 DUP4 SLOAD DIV MUL DUP4 MSTORE SWAP2 PUSH1 0x20 ADD SWAP2 PUSH2 0x381 JUMP JUMPDEST DUP3 ADD SWAP2 SWAP1 PUSH1 0x0 MSTORE PUSH1 0x20 PUSH1 0x0 KECCAK256 SWAP1 JUMPDEST DUP2 SLOAD DUP2 MSTORE SWAP1 PUSH1 0x1 ADD SWAP1 PUSH1 0x20 ADD DUP1 DUP4 GT PUSH2 0x364 JUMPI DUP3 SWAP1 SUB PUSH1 0x1F AND DUP3 ADD SWAP2 JUMPDEST POP POP POP POP POP DUP2 JUMP JUMPDEST PUSH1 0x0 DUP2 PUSH1 0x1 PUSH1 0x0 CALLER PUSH20 0xFFFFFFFFFFFFFFFFFFFFFFFFFFFFFFFFFFFFFFFF AND PUSH20 0xFFFFFFFFFFFFFFFFFFFFFFFFFFFFFFFFFFFFFFFF AND DUP2 MSTORE PUSH1 0x20 ADD SWAP1 DUP2 MSTORE PUSH1 0x20 ADD PUSH1 0x0 KECCAK256 PUSH1 0x0 DUP6 PUSH20 0xFFFFFFFFFFFFFFFFFFFFFFFFFFFFFFFFFFFFFFFF AND PUSH20 0xFFFFFFFFFFFFFFFFFFFFFFFFFFFFFFFFFFFFFFFF AND DUP2 MSTORE PUSH1 0x20 ADD SWAP1 DUP2 MSTORE PUSH1 0x20 ADD PUSH1 0x0 KECCAK256 DUP2 SWAP1 SSTORE POP DUP3 PUSH20 0xFFFFFFFFFFFFFFFFFFFFFFFFFFFFFFFFFFFFFFFF AND CALLER PUSH20 0xFFFFFFFFFFFFFFFFFFFFFFFFFFFFFFFFFFFFFFFF AND PUSH32 0x8C5BE1E5EBEC7D5BD14F71427D1E84F3DD0314C0F7B2291E5B200AC8C7C3B925 DUP5 PUSH1 0x40 MLOAD PUSH2 0x469 SWAP2 SWAP1 PUSH2 0xC2C JUMP JUMPDEST PUSH1 0x40 MLOAD DUP1 SWAP2 SUB SWAP1 LOG3 PUSH1 0x1 SWAP1 POP SWAP3 SWAP2 POP POP JUMP JUMPDEST PUSH1 0x0 PUSH1 0x6 SLOAD SWAP1 POP SWAP1 JUMP JUMPDEST PUSH1 0x2 SLOAD DUP2 JUMP JUMPDEST PUSH1 0x0 DUP2 PUSH2 0x497 DUP6 PUSH2 0x6CF JUMP JUMPDEST LT ISZERO PUSH2 0x4D8 JUMPI PUSH1 0x40 MLOAD PUSH32 0x8C379A000000000000000000000000000000000000000000000000000000000 DUP2 MSTORE PUSH1 0x4 ADD PUSH2 0x4CF SWAP1 PUSH2 0xBEC JUMP JUMPDEST PUSH1 0x40 MLOAD DUP1 SWAP2 SUB SWAP1 REVERT JUMPDEST DUP2 PUSH1 0x1 PUSH1 0x0 DUP7 PUSH20 0xFFFFFFFFFFFFFFFFFFFFFFFFFFFFFFFFFFFFFFFF AND PUSH20 0xFFFFFFFFFFFFFFFFFFFFFFFFFFFFFFFFFFFFFFFF AND DUP2 MSTORE PUSH1 0x20 ADD SWAP1 DUP2 MSTORE PUSH1 0x20 ADD PUSH1 0x0 KECCAK256 PUSH1 0x0 CALLER PUSH20 0xFFFFFFFFFFFFFFFFFFFFFFFFFFFFFFFFFFFFFFFF AND PUSH20 0xFFFFFFFFFFFFFFFFFFFFFFFFFFFFFFFFFFFFFFFF AND DUP2 MSTORE PUSH1 0x20 ADD SWAP1 DUP2 MSTORE PUSH1 0x20 ADD PUSH1 0x0 KECCAK256 SLOAD LT ISZERO PUSH2 0x597 JUMPI PUSH1 0x40 MLOAD PUSH32 0x8C379A000000000000000000000000000000000000000000000000000000000 DUP2 MSTORE PUSH1 0x4 ADD PUSH2 0x58E SWAP1 PUSH2 0xC0C JUMP JUMPDEST PUSH1 0x40 MLOAD DUP1 SWAP2 SUB SWAP1 REVERT JUMPDEST DUP2 PUSH1 0x0 DUP1 DUP6 PUSH20 0xFFFFFFFFFFFFFFFFFFFFFFFFFFFFFFFFFFFFFFFF AND PUSH20 0xFFFFFFFFFFFFFFFFFFFFFFFFFFFFFFFFFFFFFFFF AND DUP2 MSTORE PUSH1 0x20 ADD SWAP1 DUP2 MSTORE PUSH1 0x20 ADD PUSH1 0x0 KECCAK256 PUSH1 0x0 DUP3 DUP3 SLOAD PUSH2 0x5E5 SWAP2 SWAP1 PUSH2 0xCF7 JUMP JUMPDEST SWAP3 POP POP DUP2 SWAP1 SSTORE POP DUP2 PUSH1 0x0 DUP1 DUP7 PUSH20 0xFFFFFFFFFFFFFFFFFFFFFFFFFFFFFFFFFFFFFFFF AND PUSH20 0xFFFFFFFFFFFFFFFFFFFFFFFFFFFFFFFFFFFFFFFF AND DUP2 MSTORE PUSH1 0x20 ADD SWAP1 DUP2 MSTORE PUSH1 0x20 ADD PUSH1 0x0 KECCAK256 PUSH1 0x0 DUP3 DUP3 SLOAD PUSH2 0x63A SWAP2 SWAP1 PUSH2 0xDE1 JUMP JUMPDEST SWAP3 POP POP DUP2 SWAP1 SSTORE POP DUP3 PUSH20 0xFFFFFFFFFFFFFFFFFFFFFFFFFFFFFFFFFFFFFFFF AND DUP5 PUSH20 0xFFFFFFFFFFFFFFFFFFFFFFFFFFFFFFFFFFFFFFFF AND PUSH32 0xDDF252AD1BE2C89B69C2B068FC378DAA952BA7F163C4A11628F55A4DF523B3EF DUP5 PUSH1 0x40 MLOAD PUSH2 0x69E SWAP2 SWAP1 PUSH2 0xC2C JUMP JUMPDEST PUSH1 0x40 MLOAD DUP1 SWAP2 SUB SWAP1 LOG3 PUSH1 0x1 SWAP1 POP SWAP4 SWAP3 POP POP POP JUMP JUMPDEST PUSH1 0x0 PUSH1 0x20 MSTORE DUP1 PUSH1 0x0 MSTORE PUSH1 0x40 PUSH1 0x0 KECCAK256 PUSH1 0x0 SWAP2 POP SWAP1 POP SLOAD DUP2 JUMP JUMPDEST PUSH1 0x5 SLOAD DUP2 JUMP JUMPDEST PUSH1 0x0 DUP1 PUSH1 0x0 DUP4 PUSH20 0xFFFFFFFFFFFFFFFFFFFFFFFFFFFFFFFFFFFFFFFF AND PUSH20 0xFFFFFFFFFFFFFFFFFFFFFFFFFFFFFFFFFFFFFFFF AND DUP2 MSTORE PUSH1 0x20 ADD SWAP1 DUP2 MSTORE PUSH1 0x20 ADD PUSH1 0x0 KECCAK256 SLOAD SWAP1 POP SWAP2 SWAP1 POP JUMP JUMPDEST DUP1 PUSH1 0x5 PUSH1 0xA PUSH1 0x6 SLOAD PUSH2 0x729 SWAP2 SWAP1 PUSH2 0xD4D JUMP JUMPDEST PUSH2 0x733 SWAP2 SWAP1 PUSH2 0xD4D JUMP JUMPDEST PUSH2 0x73D SWAP2 SWAP1 PUSH2 0xD4D JUMP JUMPDEST PUSH1 0x6 DUP2 SWAP1 SSTORE POP POP JUMP JUMPDEST PUSH1 0x4 DUP1 SLOAD PUSH2 0x753 SWAP1 PUSH2 0xE9A JUMP JUMPDEST DUP1 PUSH1 0x1F ADD PUSH1 0x20 DUP1 SWAP2 DIV MUL PUSH1 0x20 ADD PUSH1 0x40 MLOAD SWAP1 DUP2 ADD PUSH1 0x40 MSTORE DUP1 SWAP3 SWAP2 SWAP1 DUP2 DUP2 MSTORE PUSH1 0x20 ADD DUP3 DUP1 SLOAD PUSH2 0x77F SWAP1 PUSH2 0xE9A JUMP JUMPDEST DUP1 ISZERO PUSH2 0x7CC JUMPI DUP1 PUSH1 0x1F LT PUSH2 0x7A1 JUMPI PUSH2 0x100 DUP1 DUP4 SLOAD DIV MUL DUP4 MSTORE SWAP2 PUSH1 0x20 ADD SWAP2 PUSH2 0x7CC JUMP JUMPDEST DUP3 ADD SWAP2 SWAP1 PUSH1 0x0 MSTORE PUSH1 0x20 PUSH1 0x0 KECCAK256 SWAP1 JUMPDEST DUP2 SLOAD DUP2 MSTORE SWAP1 PUSH1 0x1 ADD SWAP1 PUSH1 0x20 ADD DUP1 DUP4 GT PUSH2 0x7AF JUMPI DUP3 SWAP1 SUB PUSH1 0x1F AND DUP3 ADD SWAP2 JUMPDEST POP POP POP POP POP DUP2 JUMP JUMPDEST PUSH1 0x0 DUP2 PUSH2 0x7E0 CALLER PUSH2 0x6CF JUMP JUMPDEST LT ISZERO PUSH2 0x821 JUMPI PUSH1 0x40 MLOAD PUSH32 0x8C379A000000000000000000000000000000000000000000000000000000000 DUP2 MSTORE PUSH1 0x4 ADD PUSH2 0x818 SWAP1 PUSH2 0xBEC JUMP JUMPDEST PUSH1 0x40 MLOAD DUP1 SWAP2 SUB SWAP1 REVERT JUMPDEST DUP2 PUSH1 0x0 DUP1 DUP6 PUSH20 0xFFFFFFFFFFFFFFFFFFFFFFFFFFFFFFFFFFFFFFFF AND PUSH20 0xFFFFFFFFFFFFFFFFFFFFFFFFFFFFFFFFFFFFFFFF AND DUP2 MSTORE PUSH1 0x20 ADD SWAP1 DUP2 MSTORE PUSH1 0x20 ADD PUSH1 0x0 KECCAK256 PUSH1 0x0 DUP3 DUP3 SLOAD PUSH2 0x86F SWAP2 SWAP1 PUSH2 0xCF7 JUMP JUMPDEST SWAP3 POP POP DUP2 SWAP1 SSTORE POP DUP2 PUSH1 0x0 DUP1 CALLER PUSH20 0xFFFFFFFFFFFFFFFFFFFFFFFFFFFFFFFFFFFFFFFF AND PUSH20 0xFFFFFFFFFFFFFFFFFFFFFFFFFFFFFFFFFFFFFFFF AND DUP2 MSTORE PUSH1 0x20 ADD SWAP1 DUP2 MSTORE PUSH1 0x20 ADD PUSH1 0x0 KECCAK256 PUSH1 0x0 DUP3 DUP3 SLOAD PUSH2 0x8C4 SWAP2 SWAP1 PUSH2 0xDE1 JUMP JUMPDEST SWAP3 POP POP DUP2 SWAP1 SSTORE POP DUP3 PUSH20 0xFFFFFFFFFFFFFFFFFFFFFFFFFFFFFFFFFFFFFFFF AND CALLER PUSH20 0xFFFFFFFFFFFFFFFFFFFFFFFFFFFFFFFFFFFFFFFF AND PUSH32 0xDDF252AD1BE2C89B69C2B068FC378DAA952BA7F163C4A11628F55A4DF523B3EF DUP5 PUSH1 0x40 MLOAD PUSH2 0x928 SWAP2 SWAP1 PUSH2 0xC2C JUMP JUMPDEST PUSH1 0x40 MLOAD DUP1 SWAP2 SUB SWAP1 LOG3 PUSH1 0x1 SWAP1 POP SWAP3 SWAP2 POP POP JUMP JUMPDEST PUSH1 0x6 SLOAD DUP2 JUMP JUMPDEST PUSH1 0x1 PUSH1 0x20 MSTORE DUP2 PUSH1 0x0 MSTORE PUSH1 0x40 PUSH1 0x0 KECCAK256 PUSH1 0x20 MSTORE DUP1 PUSH1 0x0 MSTORE PUSH1 0x40 PUSH1 0x0 KECCAK256 PUSH1 0x0 SWAP2 POP SWAP2 POP POP SLOAD DUP2 JUMP JUMPDEST DUP1 PUSH1 0x6 SLOAD PUSH2 0x973 SWAP2 SWAP1 PUSH2 0xC63 JUMP JUMPDEST PUSH1 0x6 DUP2 SWAP1 SSTORE POP POP JUMP JUMPDEST PUSH1 0x0 DUP2 CALLDATALOAD SWAP1 POP PUSH2 0x98B DUP2 PUSH2 0xF92 JUMP JUMPDEST SWAP3 SWAP2 POP POP JUMP JUMPDEST PUSH1 0x0 DUP2 CALLDATALOAD SWAP1 POP PUSH2 0x9A0 DUP2 PUSH2 0xFA9 JUMP JUMPDEST SWAP3 SWAP2 POP POP JUMP JUMPDEST PUSH1 0x0 DUP2 CALLDATALOAD SWAP1 POP PUSH2 0x9B5 DUP2 PUSH2 0xFC0 JUMP JUMPDEST SWAP3 SWAP2 POP POP JUMP JUMPDEST PUSH1 0x0 PUSH1 0x20 DUP3 DUP5 SUB SLT ISZERO PUSH2 0x9D1 JUMPI PUSH2 0x9D0 PUSH2 0xF2A JUMP JUMPDEST JUMPDEST PUSH1 0x0 PUSH2 0x9DF DUP5 DUP3 DUP6 ADD PUSH2 0x97C JUMP JUMPDEST SWAP2 POP POP SWAP3 SWAP2 POP POP JUMP JUMPDEST PUSH1 0x0 DUP1 PUSH1 0x40 DUP4 DUP6 SUB SLT ISZERO PUSH2 0x9FF JUMPI PUSH2 0x9FE PUSH2 0xF2A JUMP JUMPDEST JUMPDEST PUSH1 0x0 PUSH2 0xA0D DUP6 DUP3 DUP7 ADD PUSH2 0x97C JUMP JUMPDEST SWAP3 POP POP PUSH1 0x20 PUSH2 0xA1E DUP6 DUP3 DUP7 ADD PUSH2 0x97C JUMP JUMPDEST SWAP2 POP POP SWAP3 POP SWAP3 SWAP1 POP JUMP JUMPDEST PUSH1 0x0 DUP1 PUSH1 0x0 PUSH1 0x60 DUP5 DUP7 SUB SLT ISZERO PUSH2 0xA41 JUMPI PUSH2 0xA40 PUSH2 0xF2A JUMP JUMPDEST JUMPDEST PUSH1 0x0 PUSH2 0xA4F DUP7 DUP3 DUP8 ADD PUSH2 0x97C JUMP JUMPDEST SWAP4 POP POP PUSH1 0x20 PUSH2 0xA60 DUP7 DUP3 DUP8 ADD PUSH2 0x97C JUMP JUMPDEST SWAP3 POP POP PUSH1 0x40 PUSH2 0xA71 DUP7 DUP3 DUP8 ADD PUSH2 0x9A6 JUMP JUMPDEST SWAP2 POP POP SWAP3 POP SWAP3 POP SWAP3 JUMP JUMPDEST PUSH1 0x0 DUP1 PUSH1 0x40 DUP4 DUP6 SUB SLT ISZERO PUSH2 0xA92 JUMPI PUSH2 0xA91 PUSH2 0xF2A JUMP JUMPDEST JUMPDEST PUSH1 0x0 PUSH2 0xAA0 DUP6 DUP3 DUP7 ADD PUSH2 0x97C JUMP JUMPDEST SWAP3 POP POP PUSH1 0x20 PUSH2 0xAB1 DUP6 DUP3 DUP7 ADD PUSH2 0x9A6 JUMP JUMPDEST SWAP2 POP POP SWAP3 POP SWAP3 SWAP1 POP JUMP JUMPDEST PUSH1 0x0 PUSH1 0x20 DUP3 DUP5 SUB SLT ISZERO PUSH2 0xAD1 JUMPI PUSH2 0xAD0 PUSH2 0xF2A JUMP JUMPDEST JUMPDEST PUSH1 0x0 PUSH2 0xADF DUP5 DUP3 DUP6 ADD PUSH2 0x991 JUMP JUMPDEST SWAP2 POP POP SWAP3 SWAP2 POP POP JUMP JUMPDEST PUSH2 0xAF1 DUP2 PUSH2 0xE27 JUMP JUMPDEST DUP3 MSTORE POP POP JUMP JUMPDEST PUSH2 0xB00 DUP2 PUSH2 0xE33 JUMP JUMPDEST DUP3 MSTORE POP POP JUMP JUMPDEST PUSH1 0x0 PUSH2 0xB11 DUP3 PUSH2 0xC47 JUMP JUMPDEST PUSH2 0xB1B DUP2 DUP6 PUSH2 0xC52 JUMP JUMPDEST SWAP4 POP PUSH2 0xB2B DUP2 DUP6 PUSH1 0x20 DUP7 ADD PUSH2 0xE67 JUMP JUMPDEST PUSH2 0xB34 DUP2 PUSH2 0xF2F JUMP JUMPDEST DUP5 ADD SWAP2 POP POP SWAP3 SWAP2 POP POP JUMP JUMPDEST PUSH1 0x0 PUSH2 0xB4C PUSH1 0xF DUP4 PUSH2 0xC52 JUMP JUMPDEST SWAP2 POP PUSH2 0xB57 DUP3 PUSH2 0xF40 JUMP JUMPDEST PUSH1 0x20 DUP3 ADD SWAP1 POP SWAP2 SWAP1 POP JUMP JUMPDEST PUSH1 0x0 PUSH2 0xB6F PUSH1 0x11 DUP4 PUSH2 0xC52 JUMP JUMPDEST SWAP2 POP PUSH2 0xB7A DUP3 PUSH2 0xF69 JUMP JUMPDEST PUSH1 0x20 DUP3 ADD SWAP1 POP SWAP2 SWAP1 POP JUMP JUMPDEST PUSH2 0xB8E DUP2 PUSH2 0xE5D JUMP JUMPDEST DUP3 MSTORE POP POP JUMP JUMPDEST PUSH1 0x0 PUSH1 0x20 DUP3 ADD SWAP1 POP PUSH2 0xBA9 PUSH1 0x0 DUP4 ADD DUP5 PUSH2 0xAE8 JUMP JUMPDEST SWAP3 SWAP2 POP POP JUMP JUMPDEST PUSH1 0x0 PUSH1 0x20 DUP3 ADD SWAP1 POP PUSH2 0xBC4 PUSH1 0x0 DUP4 ADD DUP5 PUSH2 0xAF7 JUMP JUMPDEST SWAP3 SWAP2 POP POP JUMP JUMPDEST PUSH1 0x0 PUSH1 0x20 DUP3 ADD SWAP1 POP DUP2 DUP2 SUB PUSH1 0x0 DUP4 ADD MSTORE PUSH2 0xBE4 DUP2 DUP5 PUSH2 0xB06 JUMP JUMPDEST SWAP1 POP SWAP3 SWAP2 POP POP JUMP JUMPDEST PUSH1 0x0 PUSH1 0x20 DUP3 ADD SWAP1 POP DUP2 DUP2 SUB PUSH1 0x0 DUP4 ADD MSTORE PUSH2 0xC05 DUP2 PUSH2 0xB3F JUMP JUMPDEST SWAP1 POP SWAP2 SWAP1 POP JUMP JUMPDEST PUSH1 0x0 PUSH1 0x20 DUP3 ADD SWAP1 POP DUP2 DUP2 SUB PUSH1 0x0 DUP4 ADD MSTORE PUSH2 0xC25 DUP2 PUSH2 0xB62 JUMP JUMPDEST SWAP1 POP SWAP2 SWAP1 POP JUMP JUMPDEST PUSH1 0x0 PUSH1 0x20 DUP3 ADD SWAP1 POP PUSH2 0xC41 PUSH1 0x0 DUP4 ADD DUP5 PUSH2 0xB85 JUMP JUMPDEST SWAP3 SWAP2 POP POP JUMP JUMPDEST PUSH1 0x0 DUP2 MLOAD SWAP1 POP SWAP2 SWAP1 POP JUMP JUMPDEST PUSH1 0x0 DUP3 DUP3 MSTORE PUSH1 0x20 DUP3 ADD SWAP1 POP SWAP3 SWAP2 POP POP JUMP JUMPDEST PUSH1 0x0 PUSH2 0xC6E DUP3 PUSH2 0xE33 JUMP JUMPDEST SWAP2 POP PUSH2 0xC79 DUP4 PUSH2 0xE33 JUMP JUMPDEST SWAP3 POP DUP2 PUSH32 0x7FFFFFFFFFFFFFFFFFFFFFFFFFFFFFFFFFFFFFFFFFFFFFFFFFFFFFFFFFFFFFFF SUB DUP4 SGT PUSH1 0x0 DUP4 SLT ISZERO AND ISZERO PUSH2 0xCB4 JUMPI PUSH2 0xCB3 PUSH2 0xECC JUMP JUMPDEST JUMPDEST DUP2 PUSH32 0x8000000000000000000000000000000000000000000000000000000000000000 SUB DUP4 SLT PUSH1 0x0 DUP4 SLT AND ISZERO PUSH2 0xCEC JUMPI PUSH2 0xCEB PUSH2 0xECC JUMP JUMPDEST JUMPDEST DUP3 DUP3 ADD SWAP1 POP SWAP3 SWAP2 POP POP JUMP JUMPDEST PUSH1 0x0 PUSH2 0xD02 DUP3 PUSH2 0xE5D JUMP JUMPDEST SWAP2 POP PUSH2 0xD0D DUP4 PUSH2 0xE5D JUMP JUMPDEST SWAP3 POP DUP3 PUSH32 0xFFFFFFFFFFFFFFFFFFFFFFFFFFFFFFFFFFFFFFFFFFFFFFFFFFFFFFFFFFFFFFFF SUB DUP3 GT ISZERO PUSH2 0xD42 JUMPI PUSH2 0xD41 PUSH2 0xECC JUMP JUMPDEST JUMPDEST DUP3 DUP3 ADD SWAP1 POP SWAP3 SWAP2 POP POP JUMP JUMPDEST PUSH1 0x0 PUSH2 0xD58 DUP3 PUSH2 0xE33 JUMP JUMPDEST SWAP2 POP PUSH2 0xD63 DUP4 PUSH2 0xE33 JUMP JUMPDEST SWAP3 POP DUP3 PUSH32 0x8000000000000000000000000000000000000000000000000000000000000000 ADD DUP3 SLT PUSH1 0x0 DUP5 SLT ISZERO AND ISZERO PUSH2 0xD9E JUMPI PUSH2 0xD9D PUSH2 0xECC JUMP JUMPDEST JUMPDEST DUP3 PUSH32 0x7FFFFFFFFFFFFFFFFFFFFFFFFFFFFFFFFFFFFFFFFFFFFFFFFFFFFFFFFFFFFFFF ADD DUP3 SGT PUSH1 0x0 DUP5 SLT AND ISZERO PUSH2 0xDD6 JUMPI PUSH2 0xDD5 PUSH2 0xECC JUMP JUMPDEST JUMPDEST DUP3 DUP3 SUB SWAP1 POP SWAP3 SWAP2 POP POP JUMP JUMPDEST PUSH1 0x0 PUSH2 0xDEC DUP3 PUSH2 0xE5D JUMP JUMPDEST SWAP2 POP PUSH2 0xDF7 DUP4 PUSH2 0xE5D JUMP JUMPDEST SWAP3 POP DUP3 DUP3 LT ISZERO PUSH2 0xE0A JUMPI PUSH2 0xE09 PUSH2 0xECC JUMP JUMPDEST JUMPDEST DUP3 DUP3 SUB SWAP1 POP SWAP3 SWAP2 POP POP JUMP JUMPDEST PUSH1 0x0 PUSH2 0xE20 DUP3 PUSH2 0xE3D JUMP JUMPDEST SWAP1 POP SWAP2 SWAP1 POP JUMP JUMPDEST PUSH1 0x0 DUP2 ISZERO ISZERO SWAP1 POP SWAP2 SWAP1 POP JUMP JUMPDEST PUSH1 0x0 DUP2 SWAP1 POP SWAP2 SWAP1 POP JUMP JUMPDEST PUSH1 0x0 PUSH20 0xFFFFFFFFFFFFFFFFFFFFFFFFFFFFFFFFFFFFFFFF DUP3 AND SWAP1 POP SWAP2 SWAP1 POP JUMP JUMPDEST PUSH1 0x0 DUP2 SWAP1 POP SWAP2 SWAP1 POP JUMP JUMPDEST PUSH1 0x0 JUMPDEST DUP4 DUP2 LT ISZERO PUSH2 0xE85 JUMPI DUP1 DUP3 ADD MLOAD DUP2 DUP5 ADD MSTORE PUSH1 0x20 DUP2 ADD SWAP1 POP PUSH2 0xE6A JUMP JUMPDEST DUP4 DUP2 GT ISZERO PUSH2 0xE94 JUMPI PUSH1 0x0 DUP5 DUP5 ADD MSTORE JUMPDEST POP POP POP POP JUMP JUMPDEST PUSH1 0x0 PUSH1 0x2 DUP3 DIV SWAP1 POP PUSH1 0x1 DUP3 AND DUP1 PUSH2 0xEB2 JUMPI PUSH1 0x7F DUP3 AND SWAP2 POP JUMPDEST PUSH1 0x20 DUP3 LT DUP2 EQ ISZERO PUSH2 0xEC6 JUMPI PUSH2 0xEC5 PUSH2 0xEFB JUMP JUMPDEST JUMPDEST POP SWAP2 SWAP1 POP JUMP JUMPDEST PUSH32 0x4E487B7100000000000000000000000000000000000000000000000000000000 PUSH1 0x0 MSTORE PUSH1 0x11 PUSH1 0x4 MSTORE PUSH1 0x24 PUSH1 0x0 REVERT JUMPDEST PUSH32 0x4E487B7100000000000000000000000000000000000000000000000000000000 PUSH1 0x0 MSTORE PUSH1 0x22 PUSH1 0x4 MSTORE PUSH1 0x24 PUSH1 0x0 REVERT JUMPDEST PUSH1 0x0 DUP1 REVERT JUMPDEST PUSH1 0x0 PUSH1 0x1F NOT PUSH1 0x1F DUP4 ADD AND SWAP1 POP SWAP2 SWAP1 POP JUMP JUMPDEST PUSH32 0x62616C616E636520746F6F206C6F770000000000000000000000000000000000 PUSH1 0x0 DUP3 ADD MSTORE POP JUMP JUMPDEST PUSH32 0x616C6C6F77616E636520746F6F206C6F77000000000000000000000000000000 PUSH1 0x0 DUP3 ADD MSTORE POP JUMP JUMPDEST PUSH2 0xF9B DUP2 PUSH2 0xE15 JUMP JUMPDEST DUP2 EQ PUSH2 0xFA6 JUMPI PUSH1 0x0 DUP1 REVERT JUMPDEST POP JUMP JUMPDEST PUSH2 0xFB2 DUP2 PUSH2 0xE33 JUMP JUMPDEST DUP2 EQ PUSH2 0xFBD JUMPI PUSH1 0x0 DUP1 REVERT JUMPDEST POP JUMP JUMPDEST PUSH2 0xFC9 DUP2 PUSH2 0xE5D JUMP JUMPDEST DUP2 EQ PUSH2 0xFD4 JUMPI PUSH1 0x0 DUP1 REVERT JUMPDEST POP JUMP INVALID LOG2 PUSH5 0x6970667358 0x22 SLT KECCAK256 MSTORE8 0xC 0xF DUP5 CALLDATALOAD MUL 0x22 EXTCODEHASH 0xB0 LOG2 0xE7 RETURN 0xD8 0x25 PUSH23 0x6C39510A3EB23EC0ED65B75D1C9D6987A664736F6C6343 STOP ADDMOD SMOD STOP CALLER "
				},
				"gasEstimates": {
					"creation": {
						"codeDepositCost": "821800",
						"executionCost": "infinite",
						"totalCost": "infinite"
					},
					"external": {
						"allowance(address,address)": "infinite",
						"approve(address,uint256)": "infinite",
						"balance()": "2473",
						"balanceOf(address)": "2864",
						"balances(address)": "2881",
						"decimals()": "2518",
						"depositBalance(int256)": "infinite",
						"getBalance()": "2505",
						"name()": "infinite",
						"symbol()": "infinite",
						"totalSupply()": "2452",
						"transfer(address,uint256)": "infinite",
						"transferFrom(address,address,uint256)": "infinite",
						"withdrawBalance(int256)": "infinite"
					}
				},
				"methodIdentifiers": {
					"allowance(address,address)": "dd62ed3e",
					"approve(address,uint256)": "095ea7b3",
					"balance()": "b69ef8a8",
					"balanceOf(address)": "70a08231",
					"balances(address)": "27e235e3",
					"decimals()": "313ce567",
					"depositBalance(int256)": "e51ed0a0",
					"getBalance()": "12065fe0",
					"name()": "06fdde03",
					"symbol()": "95d89b41",
					"totalSupply()": "18160ddd",
					"transfer(address,uint256)": "a9059cbb",
					"transferFrom(address,address,uint256)": "23b872dd",
					"withdrawBalance(int256)": "7c52caa3"
				}
			},
			"userdoc": {
				"kind": "user",
				"methods": {},
				"version": 1
			}
		}
	}
}